{
  "_format": "hh-sol-artifact-1",
  "contractName": "EthPriceBetting",
  "sourceName": "contracts/EthPriceBetting.sol",
  "abi": [
    {
      "inputs": [
        {
          "internalType": "uint256",
          "name": "_bettingDurationMinutes",
          "type": "uint256"
        }
      ],
      "stateMutability": "nonpayable",
      "type": "constructor"
    },
    {
      "anonymous": false,
      "inputs": [
        {
          "indexed": true,
          "internalType": "address",
          "name": "participant",
          "type": "address"
        },
        {
          "indexed": true,
          "internalType": "uint256",
          "name": "priceAgainst",
          "type": "uint256"
        },
        {
          "indexed": true,
          "internalType": "string",
          "name": "position",
          "type": "string"
        },
        {
          "indexed": false,
          "internalType": "uint256",
          "name": "amount",
          "type": "uint256"
        }
      ],
      "name": "BetCreated",
      "type": "event"
    },
    {
      "anonymous": false,
      "inputs": [
        {
          "indexed": true,
          "internalType": "address",
          "name": "participant",
          "type": "address"
        },
        {
          "indexed": true,
          "internalType": "uint256",
          "name": "payout",
          "type": "uint256"
        },
        {
          "indexed": true,
          "internalType": "uint256",
          "name": "priceAgainst",
          "type": "uint256"
        }
      ],
      "name": "Settled",
      "type": "event"
    },
    {
      "inputs": [],
      "name": "FEE",
      "outputs": [
        {
          "internalType": "uint256",
          "name": "",
          "type": "uint256"
        }
      ],
      "stateMutability": "view",
      "type": "function"
    },
    {
      "inputs": [
        {
          "internalType": "address",
          "name": "",
          "type": "address"
        }
      ],
      "name": "bets",
      "outputs": [
        {
          "internalType": "uint256",
          "name": "betAmount",
          "type": "uint256"
        },
        {
          "internalType": "uint256",
          "name": "priceAtPlacedBet",
          "type": "uint256"
        },
        {
          "internalType": "string",
          "name": "position",
          "type": "string"
        },
        {
          "internalType": "bool",
          "name": "participated",
          "type": "bool"
        }
      ],
      "stateMutability": "view",
      "type": "function"
    },
    {
      "inputs": [
        {
          "internalType": "bytes",
          "name": "",
          "type": "bytes"
        }
      ],
      "name": "checkUpkeep",
      "outputs": [
        {
          "internalType": "bool",
          "name": "upkeepNeeded",
          "type": "bool"
        },
        {
          "internalType": "bytes",
          "name": "",
          "type": "bytes"
        }
      ],
      "stateMutability": "view",
      "type": "function"
    },
    {
      "inputs": [],
      "name": "closingBetEthPrice",
      "outputs": [
        {
          "internalType": "uint256",
          "name": "",
          "type": "uint256"
        }
      ],
      "stateMutability": "view",
      "type": "function"
    },
    {
      "inputs": [],
      "name": "closingBetTime",
      "outputs": [
        {
          "internalType": "uint256",
          "name": "",
          "type": "uint256"
        }
      ],
      "stateMutability": "view",
      "type": "function"
    },
    {
      "inputs": [
        {
          "internalType": "string",
          "name": "_position",
          "type": "string"
        }
      ],
      "name": "createBet",
      "outputs": [],
      "stateMutability": "payable",
      "type": "function"
    },
    {
      "inputs": [],
      "name": "getChainlinkDataFeedLatestAnswer",
      "outputs": [
        {
          "internalType": "int256",
          "name": "",
          "type": "int256"
        }
      ],
      "stateMutability": "view",
      "type": "function"
    },
    {
      "inputs": [],
      "name": "getEndTime",
      "outputs": [
        {
          "internalType": "uint256",
          "name": "",
          "type": "uint256"
        }
      ],
      "stateMutability": "view",
      "type": "function"
    },
    {
      "inputs": [],
      "name": "openBetTime",
      "outputs": [
        {
          "internalType": "uint256",
          "name": "",
          "type": "uint256"
        }
      ],
      "stateMutability": "view",
      "type": "function"
    },
    {
      "inputs": [
        {
          "internalType": "uint256",
          "name": "newEndTime",
          "type": "uint256"
        }
      ],
      "name": "openNewBettingPeriod",
      "outputs": [],
      "stateMutability": "nonpayable",
      "type": "function"
    },
    {
      "inputs": [
        {
          "internalType": "bytes",
          "name": "",
          "type": "bytes"
        }
      ],
      "name": "performUpkeep",
      "outputs": [],
      "stateMutability": "nonpayable",
      "type": "function"
    },
    {
      "inputs": [
        {
          "internalType": "address",
          "name": "_forwarderAddr",
          "type": "address"
        }
      ],
      "name": "setForwarder",
      "outputs": [],
      "stateMutability": "nonpayable",
      "type": "function"
    },
    {
      "inputs": [],
      "name": "settleBet",
      "outputs": [],
      "stateMutability": "nonpayable",
      "type": "function"
    },
    {
      "inputs": [],
      "name": "withdraw",
      "outputs": [],
      "stateMutability": "nonpayable",
      "type": "function"
    },
    {
      "stateMutability": "payable",
      "type": "receive"
    }
  ],
  "bytecode": "0x60c06040523480156200001157600080fd5b50604051620024cd380380620024cd833981810160405281019062000037919062000125565b3373ffffffffffffffffffffffffffffffffffffffff1660a08173ffffffffffffffffffffffffffffffffffffffff168152505073694aa1769357215de4fac081bf1f309adc32530673ffffffffffffffffffffffffffffffffffffffff1660808173ffffffffffffffffffffffffffffffffffffffff168152505042600381905550603c81620000c9919062000186565b600354620000d89190620001d1565b600281905550506200020c565b600080fd5b6000819050919050565b620000ff81620000ea565b81146200010b57600080fd5b50565b6000815190506200011f81620000f4565b92915050565b6000602082840312156200013e576200013d620000e5565b5b60006200014e848285016200010e565b91505092915050565b7f4e487b7100000000000000000000000000000000000000000000000000000000600052601160045260246000fd5b60006200019382620000ea565b9150620001a083620000ea565b9250828202620001b081620000ea565b91508282048414831517620001ca57620001c962000157565b5b5092915050565b6000620001de82620000ea565b9150620001eb83620000ea565b925082820190508082111562000206576200020562000157565b5b92915050565b60805160a05161229462000239600039600081816103340152610f7b01526000610ec501526122946000f3fe6080604052600436106100e15760003560e01c8063afaab4511161007f578063bea4dfb511610059578063bea4dfb514610288578063c57981b5146102b3578063c88c9549146102de578063e97a402014610309576100e8565b8063afaab45114610218578063b3a2357814610243578063b9998a241461025f576100e8565b80636e04ff0d116100bb5780636e04ff0d1461015857806389a78f1a146101965780638e4bf820146101d6578063a3743b31146101ed576100e8565b80633ccfd60b146100ed578063439f5ac2146101045780634585e33b1461012f576100e8565b366100e857005b600080fd5b3480156100f957600080fd5b50610102610332565b005b34801561011057600080fd5b506101196104b2565b6040516101269190611096565b60405180910390f35b34801561013b57600080fd5b506101566004803603810190610151919061112a565b6104bc565b005b34801561016457600080fd5b5061017f600480360381019061017a919061112a565b610578565b60405161018d929190611222565b60405180910390f35b3480156101a257600080fd5b506101bd60048036038101906101b891906112b0565b610599565b6040516101cd9493929190611332565b60405180910390f35b3480156101e257600080fd5b506101eb61065e565b005b3480156101f957600080fd5b50610202610ace565b60405161020f9190611096565b60405180910390f35b34801561022457600080fd5b5061022d610ad4565b60405161023a9190611096565b60405180910390f35b61025d600480360381019061025891906114ae565b610ada565b005b34801561026b57600080fd5b50610286600480360381019061028191906112b0565b610e0e565b005b34801561029457600080fd5b5061029d610ec0565b6040516102aa9190611510565b60405180910390f35b3480156102bf57600080fd5b506102c8610f6e565b6040516102d59190611096565b60405180910390f35b3480156102ea57600080fd5b506102f3610f73565b6040516103009190611096565b60405180910390f35b34801561031557600080fd5b50610330600480360381019061032b9190611557565b610f79565b005b7f000000000000000000000000000000000000000000000000000000000000000073ffffffffffffffffffffffffffffffffffffffff163373ffffffffffffffffffffffffffffffffffffffff16146103c0576040517f08c379a00000000000000000000000000000000000000000000000000000000081526004016103b7906115d0565b60405180910390fd5b60004711610403576040517f08c379a00000000000000000000000000000000000000000000000000000000081526004016103fa9061163c565b60405180910390fd5b60003373ffffffffffffffffffffffffffffffffffffffff16476040516104299061168d565b60006040518083038185875af1925050503d8060008114610466576040519150601f19603f3d011682016040523d82523d6000602084013e61046b565b606091505b50509050806104af576040517f08c379a00000000000000000000000000000000000000000000000000000000081526004016104a6906116ee565b60405180910390fd5b50565b6000600254905090565b3360008054906101000a900473ffffffffffffffffffffffffffffffffffffffff1673ffffffffffffffffffffffffffffffffffffffff168173ffffffffffffffffffffffffffffffffffffffff161461054b576040517f08c379a00000000000000000000000000000000000000000000000000000000081526004016105429061175a565b60405180910390fd5b600254421015801561055f57506000600154145b156105735761056c610ec0565b6001819055505b505050565b60006060600254421015801561059057506000600154145b91509250929050565b60046020528060005260406000206000915090508060000154908060010154908060020180546105c8906117a9565b80601f01602080910402602001604051908101604052809291908181526020018280546105f4906117a9565b80156106415780601f1061061657610100808354040283529160200191610641565b820191906000526020600020905b81548152906001019060200180831161062457829003601f168201915b5050505050908060030160009054906101000a900460ff16905084565b6000600460003373ffffffffffffffffffffffffffffffffffffffff1673ffffffffffffffffffffffffffffffffffffffff16815260200190815260200160002060405180608001604052908160008201548152602001600182015481526020016002820180546106ce906117a9565b80601f01602080910402602001604051908101604052809291908181526020018280546106fa906117a9565b80156107475780601f1061071c57610100808354040283529160200191610747565b820191906000526020600020905b81548152906001019060200180831161072a57829003601f168201915b505050505081526020016003820160009054906101000a900460ff161515151581525050905060025442116107b1576040517f08c379a00000000000000000000000000000000000000000000000000000000081526004016107a890611826565b60405180910390fd5b6001151581606001511515146107fc576040517f08c379a00000000000000000000000000000000000000000000000000000000081526004016107f390611892565b60405180910390fd5b600060015403610841576040517f08c379a0000000000000000000000000000000000000000000000000000000008152600401610838906118fe565b60405180910390fd5b60008160400151604051602001610858919061195a565b6040516020818303038152906040528051906020012090506000604051602001610881906119bd565b60405160208183030381529060405280519060200120905060006040516020016108aa90611a1e565b604051602081830303815290604052805190602001209050600082841480156108d95750600154856020015110155b806108f5575081841480156108f45750600154856020015111155b5b9050600081610905576000610917565b600286600001516109169190611a62565b5b90508047101561095c576040517f08c379a000000000000000000000000000000000000000000000000000000000815260040161095390611b16565b60405180910390fd5b600460003373ffffffffffffffffffffffffffffffffffffffff1673ffffffffffffffffffffffffffffffffffffffff16815260200190815260200160002060008082016000905560018201600090556002820160006109bc9190611020565b6003820160006101000a81549060ff0219169055505060003373ffffffffffffffffffffffffffffffffffffffff16826040516109f89061168d565b60006040518083038185875af1925050503d8060008114610a35576040519150601f19603f3d011682016040523d82523d6000602084013e610a3a565b606091505b5050905080610a7e576040517f08c379a0000000000000000000000000000000000000000000000000000000008152600401610a75906116ee565b60405180910390fd5b600154823373ffffffffffffffffffffffffffffffffffffffff167f468aeeec0e901c52363552a06c1e39331d44c3cc886eb200af127ded3f380f8260405160405180910390a450505050505050565b60025481565b60035481565b60004290506702c68af0bb140000341015610b2a576040517f08c379a0000000000000000000000000000000000000000000000000000000008152600401610b2190611ba8565b60405180910390fd5b60001515600460003373ffffffffffffffffffffffffffffffffffffffff1673ffffffffffffffffffffffffffffffffffffffff16815260200190815260200160002060030160009054906101000a900460ff16151514610bc0576040517f08c379a0000000000000000000000000000000000000000000000000000000008152600401610bb790611c14565b60405180910390fd5b3273ffffffffffffffffffffffffffffffffffffffff163373ffffffffffffffffffffffffffffffffffffffff1614610c2e576040517f08c379a0000000000000000000000000000000000000000000000000000000008152600401610c2590611c80565b60405180910390fd5b600354811015610c73576040517f08c379a0000000000000000000000000000000000000000000000000000000008152600401610c6a90611cec565b60405180910390fd5b600254811115610cb8576040517f08c379a0000000000000000000000000000000000000000000000000000000008152600401610caf90611d58565b60405180910390fd5b600061271060c834610cca9190611a62565b610cd49190611da7565b905060008134610ce49190611dd8565b90506000610cf0610ec0565b9050604051806080016040528083815260200182815260200186815260200160011515815250600460003373ffffffffffffffffffffffffffffffffffffffff1673ffffffffffffffffffffffffffffffffffffffff16815260200190815260200160002060008201518160000155602082015181600101556040820151816002019081610d7e9190611fb8565b5060608201518160030160006101000a81548160ff02191690831515021790555090505084604051610db0919061195a565b6040518091039020813373ffffffffffffffffffffffffffffffffffffffff167f02bc3e3ca13ebbfdec35e57cfcbf9c9d35b7120218d9fd7e429077218044b98885604051610dff9190611096565b60405180910390a45050505050565b600073ffffffffffffffffffffffffffffffffffffffff168173ffffffffffffffffffffffffffffffffffffffff1603610e7d576040517f08c379a0000000000000000000000000000000000000000000000000000000008152600401610e74906120d6565b60405180910390fd5b806000806101000a81548173ffffffffffffffffffffffffffffffffffffffff021916908373ffffffffffffffffffffffffffffffffffffffff16021790555050565b6000807f000000000000000000000000000000000000000000000000000000000000000073ffffffffffffffffffffffffffffffffffffffff1663feaf968c6040518163ffffffff1660e01b815260040160a060405180830381865afa158015610f2e573d6000803e3d6000fd5b505050506040513d601f19601f82011682018060405250810190610f529190612179565b5050509150506305f5e10081610f6891906121f4565b91505090565b60c881565b60015481565b7f000000000000000000000000000000000000000000000000000000000000000073ffffffffffffffffffffffffffffffffffffffff163373ffffffffffffffffffffffffffffffffffffffff1614611007576040517f08c379a0000000000000000000000000000000000000000000000000000000008152600401610ffe906115d0565b60405180910390fd5b4260038190555080600281905550600060018190555050565b50805461102c906117a9565b6000825580601f1061103e575061105d565b601f01602090049060005260206000209081019061105c9190611060565b5b50565b5b80821115611079576000816000905550600101611061565b5090565b6000819050919050565b6110908161107d565b82525050565b60006020820190506110ab6000830184611087565b92915050565b6000604051905090565b600080fd5b600080fd5b600080fd5b600080fd5b600080fd5b60008083601f8401126110ea576110e96110c5565b5b8235905067ffffffffffffffff811115611107576111066110ca565b5b602083019150836001820283011115611123576111226110cf565b5b9250929050565b60008060208385031215611141576111406110bb565b5b600083013567ffffffffffffffff81111561115f5761115e6110c0565b5b61116b858286016110d4565b92509250509250929050565b60008115159050919050565b61118c81611177565b82525050565b600081519050919050565b600082825260208201905092915050565b60005b838110156111cc5780820151818401526020810190506111b1565b60008484015250505050565b6000601f19601f8301169050919050565b60006111f482611192565b6111fe818561119d565b935061120e8185602086016111ae565b611217816111d8565b840191505092915050565b60006040820190506112376000830185611183565b818103602083015261124981846111e9565b90509392505050565b600073ffffffffffffffffffffffffffffffffffffffff82169050919050565b600061127d82611252565b9050919050565b61128d81611272565b811461129857600080fd5b50565b6000813590506112aa81611284565b92915050565b6000602082840312156112c6576112c56110bb565b5b60006112d48482850161129b565b91505092915050565b600081519050919050565b600082825260208201905092915050565b6000611304826112dd565b61130e81856112e8565b935061131e8185602086016111ae565b611327816111d8565b840191505092915050565b60006080820190506113476000830187611087565b6113546020830186611087565b818103604083015261136681856112f9565b90506113756060830184611183565b95945050505050565b600080fd5b7f4e487b7100000000000000000000000000000000000000000000000000000000600052604160045260246000fd5b6113bb826111d8565b810181811067ffffffffffffffff821117156113da576113d9611383565b5b80604052505050565b60006113ed6110b1565b90506113f982826113b2565b919050565b600067ffffffffffffffff82111561141957611418611383565b5b611422826111d8565b9050602081019050919050565b82818337600083830152505050565b600061145161144c846113fe565b6113e3565b90508281526020810184848401111561146d5761146c61137e565b5b61147884828561142f565b509392505050565b600082601f830112611495576114946110c5565b5b81356114a584826020860161143e565b91505092915050565b6000602082840312156114c4576114c36110bb565b5b600082013567ffffffffffffffff8111156114e2576114e16110c0565b5b6114ee84828501611480565b91505092915050565b6000819050919050565b61150a816114f7565b82525050565b60006020820190506115256000830184611501565b92915050565b6115348161107d565b811461153f57600080fd5b50565b6000813590506115518161152b565b92915050565b60006020828403121561156d5761156c6110bb565b5b600061157b84828501611542565b91505092915050565b7f4e6f7420746865206f776e657200000000000000000000000000000000000000600082015250565b60006115ba600d836112e8565b91506115c582611584565b602082019050919050565b600060208201905081810360008301526115e9816115ad565b9050919050565b7f4e6f20617661696c61626c652066756e64730000000000000000000000000000600082015250565b60006116266012836112e8565b9150611631826115f0565b602082019050919050565b6000602082019050818103600083015261165581611619565b9050919050565b600081905092915050565b50565b600061167760008361165c565b915061168282611667565b600082019050919050565b60006116988261166a565b9150819050919050565b7f5472616e73616374696f6e206661696c65640000000000000000000000000000600082015250565b60006116d86012836112e8565b91506116e3826116a2565b602082019050919050565b60006020820190508181036000830152611707816116cb565b9050919050565b7f4e6f7420616c6c6f776564000000000000000000000000000000000000000000600082015250565b6000611744600b836112e8565b915061174f8261170e565b602082019050919050565b6000602082019050818103600083015261177381611737565b9050919050565b7f4e487b7100000000000000000000000000000000000000000000000000000000600052602260045260246000fd5b600060028204905060018216806117c157607f821691505b6020821081036117d4576117d361177a565b5b50919050565b7f42657474696e672074696d65206e6f742066696e697368656400000000000000600082015250565b60006118106019836112e8565b915061181b826117da565b602082019050919050565b6000602082019050818103600083015261183f81611803565b9050919050565b7f596f752068617665206e6f742070617274696369706174656400000000000000600082015250565b600061187c6019836112e8565b915061188782611846565b602082019050919050565b600060208201905081810360008301526118ab8161186f565b9050919050565b7f4574682070726963652063616e74206265203000000000000000000000000000600082015250565b60006118e86013836112e8565b91506118f3826118b2565b602082019050919050565b60006020820190508181036000830152611917816118db565b9050919050565b600081905092915050565b6000611934826112dd565b61193e818561191e565b935061194e8185602086016111ae565b80840191505092915050565b60006119668284611929565b915081905092915050565b7f6c6f6e6700000000000000000000000000000000000000000000000000000000600082015250565b60006119a760048361191e565b91506119b282611971565b600482019050919050565b60006119c88261199a565b9150819050919050565b7f73686f7274000000000000000000000000000000000000000000000000000000600082015250565b6000611a0860058361191e565b9150611a13826119d2565b600582019050919050565b6000611a29826119fb565b9150819050919050565b7f4e487b7100000000000000000000000000000000000000000000000000000000600052601160045260246000fd5b6000611a6d8261107d565b9150611a788361107d565b9250828202611a868161107d565b91508282048414831517611a9d57611a9c611a33565b5b5092915050565b7f4e6f7420656e6f7567682066756e64732c20636f6d65206261636b206c61746560008201527f7200000000000000000000000000000000000000000000000000000000000000602082015250565b6000611b006021836112e8565b9150611b0b82611aa4565b604082019050919050565b60006020820190508181036000830152611b2f81611af3565b9050919050565b7f52657175697265732068696768657220616d6f756e74207468616e20302e322060008201527f4574686572000000000000000000000000000000000000000000000000000000602082015250565b6000611b926025836112e8565b9150611b9d82611b36565b604082019050919050565b60006020820190508181036000830152611bc181611b85565b9050919050565b7f596f752068617665206578697374696e67206265740000000000000000000000600082015250565b6000611bfe6015836112e8565b9150611c0982611bc8565b602082019050919050565b60006020820190508181036000830152611c2d81611bf1565b9050919050565b7f4f6e6c7920454f412063616e2070617274696369706174650000000000000000600082015250565b6000611c6a6018836112e8565b9150611c7582611c34565b602082019050919050565b60006020820190508181036000830152611c9981611c5d565b9050919050565b7f42657474696e67206e6f74206f70656e2e000000000000000000000000000000600082015250565b6000611cd66011836112e8565b9150611ce182611ca0565b602082019050919050565b60006020820190508181036000830152611d0581611cc9565b9050919050565b7f42657474696e672074696d652066696e69736865642e00000000000000000000600082015250565b6000611d426016836112e8565b9150611d4d82611d0c565b602082019050919050565b60006020820190508181036000830152611d7181611d35565b9050919050565b7f4e487b7100000000000000000000000000000000000000000000000000000000600052601260045260246000fd5b6000611db28261107d565b9150611dbd8361107d565b925082611dcd57611dcc611d78565b5b828204905092915050565b6000611de38261107d565b9150611dee8361107d565b9250828203905081811115611e0657611e05611a33565b5b92915050565b60008190508160005260206000209050919050565b60006020601f8301049050919050565b600082821b905092915050565b600060088302611e6e7fffffffffffffffffffffffffffffffffffffffffffffffffffffffffffffffff82611e31565b611e788683611e31565b95508019841693508086168417925050509392505050565b6000819050919050565b6000611eb5611eb0611eab8461107d565b611e90565b61107d565b9050919050565b6000819050919050565b611ecf83611e9a565b611ee3611edb82611ebc565b848454611e3e565b825550505050565b600090565b611ef8611eeb565b611f03818484611ec6565b505050565b5b81811015611f2757611f1c600082611ef0565b600181019050611f09565b5050565b601f821115611f6c57611f3d81611e0c565b611f4684611e21565b81016020851015611f55578190505b611f69611f6185611e21565b830182611f08565b50505b505050565b600082821c905092915050565b6000611f8f60001984600802611f71565b1980831691505092915050565b6000611fa88383611f7e565b9150826002028217905092915050565b611fc1826112dd565b67ffffffffffffffff811115611fda57611fd9611383565b5b611fe482546117a9565b611fef828285611f2b565b600060209050601f8311600181146120225760008415612010578287015190505b61201a8582611f9c565b865550612082565b601f19841661203086611e0c565b60005b8281101561205857848901518255600182019150602085019450602081019050612033565b868310156120755784890151612071601f891682611f7e565b8355505b6001600288020188555050505b505050505050565b7f43616e7420626520616464726573732030000000000000000000000000000000600082015250565b60006120c06011836112e8565b91506120cb8261208a565b602082019050919050565b600060208201905081810360008301526120ef816120b3565b9050919050565b600069ffffffffffffffffffff82169050919050565b612115816120f6565b811461212057600080fd5b50565b6000815190506121328161210c565b92915050565b612141816114f7565b811461214c57600080fd5b50565b60008151905061215e81612138565b92915050565b6000815190506121738161152b565b92915050565b600080600080600060a08688031215612195576121946110bb565b5b60006121a388828901612123565b95505060206121b48882890161214f565b94505060406121c588828901612164565b93505060606121d688828901612164565b92505060806121e788828901612123565b9150509295509295909350565b60006121ff826114f7565b915061220a836114f7565b92508261221a57612219611d78565b5b600160000383147f80000000000000000000000000000000000000000000000000000000000000008314161561225357612252611a33565b5b82820590509291505056fea264697066735822122076006be8336bdeb388d56184257a37c0699a5b4dae8c53026058c814ba6766a064736f6c63430008130033",
  "linkReferences": {},
  "deployedLinkReferences": {}
}