{
  "contracts/EthPriceBetting.sol": {
    "EthPriceBetting": {
      "abi": [
        {
          "inputs": [
            {
              "internalType": "uint256",
              "name": "_bettingDurationMinutes",
              "type": "uint256"
            }
          ],
          "stateMutability": "nonpayable",
          "type": "constructor"
        },
        {
          "anonymous": false,
          "inputs": [
            {
              "indexed": true,
              "internalType": "address",
              "name": "participant",
              "type": "address"
            },
            {
              "indexed": true,
              "internalType": "uint256",
              "name": "priceAgainst",
              "type": "uint256"
            },
            {
              "indexed": true,
              "internalType": "string",
              "name": "position",
              "type": "string"
            },
            {
              "indexed": false,
              "internalType": "uint256",
              "name": "amount",
              "type": "uint256"
            }
          ],
          "name": "BetCreated",
          "type": "event"
        },
        {
          "anonymous": false,
          "inputs": [
            {
              "indexed": true,
              "internalType": "address",
              "name": "participant",
              "type": "address"
            },
            {
              "indexed": true,
              "internalType": "uint256",
              "name": "payout",
              "type": "uint256"
            },
            {
              "indexed": true,
              "internalType": "uint256",
              "name": "priceAgainst",
              "type": "uint256"
            }
          ],
          "name": "Settled",
          "type": "event"
        },
        {
          "inputs": [],
          "name": "FEE",
          "outputs": [
            {
              "internalType": "uint256",
              "name": "",
              "type": "uint256"
            }
          ],
          "stateMutability": "view",
          "type": "function"
        },
        {
          "inputs": [
            {
              "internalType": "address",
              "name": "",
              "type": "address"
            }
          ],
          "name": "bets",
          "outputs": [
            {
              "internalType": "uint256",
              "name": "betAmount",
              "type": "uint256"
            },
            {
              "internalType": "uint256",
              "name": "priceAtPlacedBet",
              "type": "uint256"
            },
            {
              "internalType": "string",
              "name": "position",
              "type": "string"
            },
            {
              "internalType": "bool",
              "name": "participated",
              "type": "bool"
            }
          ],
          "stateMutability": "view",
          "type": "function"
        },
        {
          "inputs": [
            {
              "internalType": "bytes",
              "name": "",
              "type": "bytes"
            }
          ],
          "name": "checkUpkeep",
          "outputs": [
            {
              "internalType": "bool",
              "name": "upkeepNeeded",
              "type": "bool"
            },
            {
              "internalType": "bytes",
              "name": "",
              "type": "bytes"
            }
          ],
          "stateMutability": "view",
          "type": "function"
        },
        {
          "inputs": [],
          "name": "closingBetEthPrice",
          "outputs": [
            {
              "internalType": "uint256",
              "name": "",
              "type": "uint256"
            }
          ],
          "stateMutability": "view",
          "type": "function"
        },
        {
          "inputs": [],
          "name": "closingBetTime",
          "outputs": [
            {
              "internalType": "uint256",
              "name": "",
              "type": "uint256"
            }
          ],
          "stateMutability": "view",
          "type": "function"
        },
        {
          "inputs": [
            {
              "internalType": "string",
              "name": "_position",
              "type": "string"
            }
          ],
          "name": "createBet",
          "outputs": [],
          "stateMutability": "payable",
          "type": "function"
        },
        {
          "inputs": [],
          "name": "getChainlinkDataFeedLatestAnswer",
          "outputs": [
            {
              "internalType": "int256",
              "name": "",
              "type": "int256"
            }
          ],
          "stateMutability": "view",
          "type": "function"
        },
        {
          "inputs": [],
          "name": "getEndTime",
          "outputs": [
            {
              "internalType": "uint256",
              "name": "",
              "type": "uint256"
            }
          ],
          "stateMutability": "view",
          "type": "function"
        },
        {
          "inputs": [],
          "name": "openBetTime",
          "outputs": [
            {
              "internalType": "uint256",
              "name": "",
              "type": "uint256"
            }
          ],
          "stateMutability": "view",
          "type": "function"
        },
        {
          "inputs": [
            {
              "internalType": "uint256",
              "name": "newEndTime",
              "type": "uint256"
            }
          ],
          "name": "openNewBettingPeriod",
          "outputs": [],
          "stateMutability": "nonpayable",
          "type": "function"
        },
        {
          "inputs": [
            {
              "internalType": "bytes",
              "name": "",
              "type": "bytes"
            }
          ],
          "name": "performUpkeep",
          "outputs": [],
          "stateMutability": "nonpayable",
          "type": "function"
        },
        {
          "inputs": [
            {
              "internalType": "address",
              "name": "_forwarderAddr",
              "type": "address"
            }
          ],
          "name": "setForwarder",
          "outputs": [],
          "stateMutability": "nonpayable",
          "type": "function"
        },
        {
          "inputs": [],
          "name": "settleBet",
          "outputs": [],
          "stateMutability": "nonpayable",
          "type": "function"
        },
        {
          "inputs": [],
          "name": "withdraw",
          "outputs": [],
          "stateMutability": "nonpayable",
          "type": "function"
        },
        {
          "stateMutability": "payable",
          "type": "receive"
        }
      ],
      "evm": {
        "bytecode": {
          "linkReferences": {},
          "object": "60c06040523480156200001157600080fd5b50604051620024cd380380620024cd833981810160405281019062000037919062000125565b3373ffffffffffffffffffffffffffffffffffffffff1660a08173ffffffffffffffffffffffffffffffffffffffff168152505073694aa1769357215de4fac081bf1f309adc32530673ffffffffffffffffffffffffffffffffffffffff1660808173ffffffffffffffffffffffffffffffffffffffff168152505042600381905550603c81620000c9919062000186565b600354620000d89190620001d1565b600281905550506200020c565b600080fd5b6000819050919050565b620000ff81620000ea565b81146200010b57600080fd5b50565b6000815190506200011f81620000f4565b92915050565b6000602082840312156200013e576200013d620000e5565b5b60006200014e848285016200010e565b91505092915050565b7f4e487b7100000000000000000000000000000000000000000000000000000000600052601160045260246000fd5b60006200019382620000ea565b9150620001a083620000ea565b9250828202620001b081620000ea565b91508282048414831517620001ca57620001c962000157565b5b5092915050565b6000620001de82620000ea565b9150620001eb83620000ea565b925082820190508082111562000206576200020562000157565b5b92915050565b60805160a05161229462000239600039600081816103340152610f7b01526000610ec501526122946000f3fe6080604052600436106100e15760003560e01c8063afaab4511161007f578063bea4dfb511610059578063bea4dfb514610288578063c57981b5146102b3578063c88c9549146102de578063e97a402014610309576100e8565b8063afaab45114610218578063b3a2357814610243578063b9998a241461025f576100e8565b80636e04ff0d116100bb5780636e04ff0d1461015857806389a78f1a146101965780638e4bf820146101d6578063a3743b31146101ed576100e8565b80633ccfd60b146100ed578063439f5ac2146101045780634585e33b1461012f576100e8565b366100e857005b600080fd5b3480156100f957600080fd5b50610102610332565b005b34801561011057600080fd5b506101196104b2565b6040516101269190611096565b60405180910390f35b34801561013b57600080fd5b506101566004803603810190610151919061112a565b6104bc565b005b34801561016457600080fd5b5061017f600480360381019061017a919061112a565b610578565b60405161018d929190611222565b60405180910390f35b3480156101a257600080fd5b506101bd60048036038101906101b891906112b0565b610599565b6040516101cd9493929190611332565b60405180910390f35b3480156101e257600080fd5b506101eb61065e565b005b3480156101f957600080fd5b50610202610ace565b60405161020f9190611096565b60405180910390f35b34801561022457600080fd5b5061022d610ad4565b60405161023a9190611096565b60405180910390f35b61025d600480360381019061025891906114ae565b610ada565b005b34801561026b57600080fd5b50610286600480360381019061028191906112b0565b610e0e565b005b34801561029457600080fd5b5061029d610ec0565b6040516102aa9190611510565b60405180910390f35b3480156102bf57600080fd5b506102c8610f6e565b6040516102d59190611096565b60405180910390f35b3480156102ea57600080fd5b506102f3610f73565b6040516103009190611096565b60405180910390f35b34801561031557600080fd5b50610330600480360381019061032b9190611557565b610f79565b005b7f000000000000000000000000000000000000000000000000000000000000000073ffffffffffffffffffffffffffffffffffffffff163373ffffffffffffffffffffffffffffffffffffffff16146103c0576040517f08c379a00000000000000000000000000000000000000000000000000000000081526004016103b7906115d0565b60405180910390fd5b60004711610403576040517f08c379a00000000000000000000000000000000000000000000000000000000081526004016103fa9061163c565b60405180910390fd5b60003373ffffffffffffffffffffffffffffffffffffffff16476040516104299061168d565b60006040518083038185875af1925050503d8060008114610466576040519150601f19603f3d011682016040523d82523d6000602084013e61046b565b606091505b50509050806104af576040517f08c379a00000000000000000000000000000000000000000000000000000000081526004016104a6906116ee565b60405180910390fd5b50565b6000600254905090565b3360008054906101000a900473ffffffffffffffffffffffffffffffffffffffff1673ffffffffffffffffffffffffffffffffffffffff168173ffffffffffffffffffffffffffffffffffffffff161461054b576040517f08c379a00000000000000000000000000000000000000000000000000000000081526004016105429061175a565b60405180910390fd5b600254421015801561055f57506000600154145b156105735761056c610ec0565b6001819055505b505050565b60006060600254421015801561059057506000600154145b91509250929050565b60046020528060005260406000206000915090508060000154908060010154908060020180546105c8906117a9565b80601f01602080910402602001604051908101604052809291908181526020018280546105f4906117a9565b80156106415780601f1061061657610100808354040283529160200191610641565b820191906000526020600020905b81548152906001019060200180831161062457829003601f168201915b5050505050908060030160009054906101000a900460ff16905084565b6000600460003373ffffffffffffffffffffffffffffffffffffffff1673ffffffffffffffffffffffffffffffffffffffff16815260200190815260200160002060405180608001604052908160008201548152602001600182015481526020016002820180546106ce906117a9565b80601f01602080910402602001604051908101604052809291908181526020018280546106fa906117a9565b80156107475780601f1061071c57610100808354040283529160200191610747565b820191906000526020600020905b81548152906001019060200180831161072a57829003601f168201915b505050505081526020016003820160009054906101000a900460ff161515151581525050905060025442116107b1576040517f08c379a00000000000000000000000000000000000000000000000000000000081526004016107a890611826565b60405180910390fd5b6001151581606001511515146107fc576040517f08c379a00000000000000000000000000000000000000000000000000000000081526004016107f390611892565b60405180910390fd5b600060015403610841576040517f08c379a0000000000000000000000000000000000000000000000000000000008152600401610838906118fe565b60405180910390fd5b60008160400151604051602001610858919061195a565b6040516020818303038152906040528051906020012090506000604051602001610881906119bd565b60405160208183030381529060405280519060200120905060006040516020016108aa90611a1e565b604051602081830303815290604052805190602001209050600082841480156108d95750600154856020015110155b806108f5575081841480156108f45750600154856020015111155b5b9050600081610905576000610917565b600286600001516109169190611a62565b5b90508047101561095c576040517f08c379a000000000000000000000000000000000000000000000000000000000815260040161095390611b16565b60405180910390fd5b600460003373ffffffffffffffffffffffffffffffffffffffff1673ffffffffffffffffffffffffffffffffffffffff16815260200190815260200160002060008082016000905560018201600090556002820160006109bc9190611020565b6003820160006101000a81549060ff0219169055505060003373ffffffffffffffffffffffffffffffffffffffff16826040516109f89061168d565b60006040518083038185875af1925050503d8060008114610a35576040519150601f19603f3d011682016040523d82523d6000602084013e610a3a565b606091505b5050905080610a7e576040517f08c379a0000000000000000000000000000000000000000000000000000000008152600401610a75906116ee565b60405180910390fd5b600154823373ffffffffffffffffffffffffffffffffffffffff167f468aeeec0e901c52363552a06c1e39331d44c3cc886eb200af127ded3f380f8260405160405180910390a450505050505050565b60025481565b60035481565b60004290506702c68af0bb140000341015610b2a576040517f08c379a0000000000000000000000000000000000000000000000000000000008152600401610b2190611ba8565b60405180910390fd5b60001515600460003373ffffffffffffffffffffffffffffffffffffffff1673ffffffffffffffffffffffffffffffffffffffff16815260200190815260200160002060030160009054906101000a900460ff16151514610bc0576040517f08c379a0000000000000000000000000000000000000000000000000000000008152600401610bb790611c14565b60405180910390fd5b3273ffffffffffffffffffffffffffffffffffffffff163373ffffffffffffffffffffffffffffffffffffffff1614610c2e576040517f08c379a0000000000000000000000000000000000000000000000000000000008152600401610c2590611c80565b60405180910390fd5b600354811015610c73576040517f08c379a0000000000000000000000000000000000000000000000000000000008152600401610c6a90611cec565b60405180910390fd5b600254811115610cb8576040517f08c379a0000000000000000000000000000000000000000000000000000000008152600401610caf90611d58565b60405180910390fd5b600061271060c834610cca9190611a62565b610cd49190611da7565b905060008134610ce49190611dd8565b90506000610cf0610ec0565b9050604051806080016040528083815260200182815260200186815260200160011515815250600460003373ffffffffffffffffffffffffffffffffffffffff1673ffffffffffffffffffffffffffffffffffffffff16815260200190815260200160002060008201518160000155602082015181600101556040820151816002019081610d7e9190611fb8565b5060608201518160030160006101000a81548160ff02191690831515021790555090505084604051610db0919061195a565b6040518091039020813373ffffffffffffffffffffffffffffffffffffffff167f02bc3e3ca13ebbfdec35e57cfcbf9c9d35b7120218d9fd7e429077218044b98885604051610dff9190611096565b60405180910390a45050505050565b600073ffffffffffffffffffffffffffffffffffffffff168173ffffffffffffffffffffffffffffffffffffffff1603610e7d576040517f08c379a0000000000000000000000000000000000000000000000000000000008152600401610e74906120d6565b60405180910390fd5b806000806101000a81548173ffffffffffffffffffffffffffffffffffffffff021916908373ffffffffffffffffffffffffffffffffffffffff16021790555050565b6000807f000000000000000000000000000000000000000000000000000000000000000073ffffffffffffffffffffffffffffffffffffffff1663feaf968c6040518163ffffffff1660e01b815260040160a060405180830381865afa158015610f2e573d6000803e3d6000fd5b505050506040513d601f19601f82011682018060405250810190610f529190612179565b5050509150506305f5e10081610f6891906121f4565b91505090565b60c881565b60015481565b7f000000000000000000000000000000000000000000000000000000000000000073ffffffffffffffffffffffffffffffffffffffff163373ffffffffffffffffffffffffffffffffffffffff1614611007576040517f08c379a0000000000000000000000000000000000000000000000000000000008152600401610ffe906115d0565b60405180910390fd5b4260038190555080600281905550600060018190555050565b50805461102c906117a9565b6000825580601f1061103e575061105d565b601f01602090049060005260206000209081019061105c9190611060565b5b50565b5b80821115611079576000816000905550600101611061565b5090565b6000819050919050565b6110908161107d565b82525050565b60006020820190506110ab6000830184611087565b92915050565b6000604051905090565b600080fd5b600080fd5b600080fd5b600080fd5b600080fd5b60008083601f8401126110ea576110e96110c5565b5b8235905067ffffffffffffffff811115611107576111066110ca565b5b602083019150836001820283011115611123576111226110cf565b5b9250929050565b60008060208385031215611141576111406110bb565b5b600083013567ffffffffffffffff81111561115f5761115e6110c0565b5b61116b858286016110d4565b92509250509250929050565b60008115159050919050565b61118c81611177565b82525050565b600081519050919050565b600082825260208201905092915050565b60005b838110156111cc5780820151818401526020810190506111b1565b60008484015250505050565b6000601f19601f8301169050919050565b60006111f482611192565b6111fe818561119d565b935061120e8185602086016111ae565b611217816111d8565b840191505092915050565b60006040820190506112376000830185611183565b818103602083015261124981846111e9565b90509392505050565b600073ffffffffffffffffffffffffffffffffffffffff82169050919050565b600061127d82611252565b9050919050565b61128d81611272565b811461129857600080fd5b50565b6000813590506112aa81611284565b92915050565b6000602082840312156112c6576112c56110bb565b5b60006112d48482850161129b565b91505092915050565b600081519050919050565b600082825260208201905092915050565b6000611304826112dd565b61130e81856112e8565b935061131e8185602086016111ae565b611327816111d8565b840191505092915050565b60006080820190506113476000830187611087565b6113546020830186611087565b818103604083015261136681856112f9565b90506113756060830184611183565b95945050505050565b600080fd5b7f4e487b7100000000000000000000000000000000000000000000000000000000600052604160045260246000fd5b6113bb826111d8565b810181811067ffffffffffffffff821117156113da576113d9611383565b5b80604052505050565b60006113ed6110b1565b90506113f982826113b2565b919050565b600067ffffffffffffffff82111561141957611418611383565b5b611422826111d8565b9050602081019050919050565b82818337600083830152505050565b600061145161144c846113fe565b6113e3565b90508281526020810184848401111561146d5761146c61137e565b5b61147884828561142f565b509392505050565b600082601f830112611495576114946110c5565b5b81356114a584826020860161143e565b91505092915050565b6000602082840312156114c4576114c36110bb565b5b600082013567ffffffffffffffff8111156114e2576114e16110c0565b5b6114ee84828501611480565b91505092915050565b6000819050919050565b61150a816114f7565b82525050565b60006020820190506115256000830184611501565b92915050565b6115348161107d565b811461153f57600080fd5b50565b6000813590506115518161152b565b92915050565b60006020828403121561156d5761156c6110bb565b5b600061157b84828501611542565b91505092915050565b7f4e6f7420746865206f776e657200000000000000000000000000000000000000600082015250565b60006115ba600d836112e8565b91506115c582611584565b602082019050919050565b600060208201905081810360008301526115e9816115ad565b9050919050565b7f4e6f20617661696c61626c652066756e64730000000000000000000000000000600082015250565b60006116266012836112e8565b9150611631826115f0565b602082019050919050565b6000602082019050818103600083015261165581611619565b9050919050565b600081905092915050565b50565b600061167760008361165c565b915061168282611667565b600082019050919050565b60006116988261166a565b9150819050919050565b7f5472616e73616374696f6e206661696c65640000000000000000000000000000600082015250565b60006116d86012836112e8565b91506116e3826116a2565b602082019050919050565b60006020820190508181036000830152611707816116cb565b9050919050565b7f4e6f7420616c6c6f776564000000000000000000000000000000000000000000600082015250565b6000611744600b836112e8565b915061174f8261170e565b602082019050919050565b6000602082019050818103600083015261177381611737565b9050919050565b7f4e487b7100000000000000000000000000000000000000000000000000000000600052602260045260246000fd5b600060028204905060018216806117c157607f821691505b6020821081036117d4576117d361177a565b5b50919050565b7f42657474696e672074696d65206e6f742066696e697368656400000000000000600082015250565b60006118106019836112e8565b915061181b826117da565b602082019050919050565b6000602082019050818103600083015261183f81611803565b9050919050565b7f596f752068617665206e6f742070617274696369706174656400000000000000600082015250565b600061187c6019836112e8565b915061188782611846565b602082019050919050565b600060208201905081810360008301526118ab8161186f565b9050919050565b7f4574682070726963652063616e74206265203000000000000000000000000000600082015250565b60006118e86013836112e8565b91506118f3826118b2565b602082019050919050565b60006020820190508181036000830152611917816118db565b9050919050565b600081905092915050565b6000611934826112dd565b61193e818561191e565b935061194e8185602086016111ae565b80840191505092915050565b60006119668284611929565b915081905092915050565b7f6c6f6e6700000000000000000000000000000000000000000000000000000000600082015250565b60006119a760048361191e565b91506119b282611971565b600482019050919050565b60006119c88261199a565b9150819050919050565b7f73686f7274000000000000000000000000000000000000000000000000000000600082015250565b6000611a0860058361191e565b9150611a13826119d2565b600582019050919050565b6000611a29826119fb565b9150819050919050565b7f4e487b7100000000000000000000000000000000000000000000000000000000600052601160045260246000fd5b6000611a6d8261107d565b9150611a788361107d565b9250828202611a868161107d565b91508282048414831517611a9d57611a9c611a33565b5b5092915050565b7f4e6f7420656e6f7567682066756e64732c20636f6d65206261636b206c61746560008201527f7200000000000000000000000000000000000000000000000000000000000000602082015250565b6000611b006021836112e8565b9150611b0b82611aa4565b604082019050919050565b60006020820190508181036000830152611b2f81611af3565b9050919050565b7f52657175697265732068696768657220616d6f756e74207468616e20302e322060008201527f4574686572000000000000000000000000000000000000000000000000000000602082015250565b6000611b926025836112e8565b9150611b9d82611b36565b604082019050919050565b60006020820190508181036000830152611bc181611b85565b9050919050565b7f596f752068617665206578697374696e67206265740000000000000000000000600082015250565b6000611bfe6015836112e8565b9150611c0982611bc8565b602082019050919050565b60006020820190508181036000830152611c2d81611bf1565b9050919050565b7f4f6e6c7920454f412063616e2070617274696369706174650000000000000000600082015250565b6000611c6a6018836112e8565b9150611c7582611c34565b602082019050919050565b60006020820190508181036000830152611c9981611c5d565b9050919050565b7f42657474696e67206e6f74206f70656e2e000000000000000000000000000000600082015250565b6000611cd66011836112e8565b9150611ce182611ca0565b602082019050919050565b60006020820190508181036000830152611d0581611cc9565b9050919050565b7f42657474696e672074696d652066696e69736865642e00000000000000000000600082015250565b6000611d426016836112e8565b9150611d4d82611d0c565b602082019050919050565b60006020820190508181036000830152611d7181611d35565b9050919050565b7f4e487b7100000000000000000000000000000000000000000000000000000000600052601260045260246000fd5b6000611db28261107d565b9150611dbd8361107d565b925082611dcd57611dcc611d78565b5b828204905092915050565b6000611de38261107d565b9150611dee8361107d565b9250828203905081811115611e0657611e05611a33565b5b92915050565b60008190508160005260206000209050919050565b60006020601f8301049050919050565b600082821b905092915050565b600060088302611e6e7fffffffffffffffffffffffffffffffffffffffffffffffffffffffffffffffff82611e31565b611e788683611e31565b95508019841693508086168417925050509392505050565b6000819050919050565b6000611eb5611eb0611eab8461107d565b611e90565b61107d565b9050919050565b6000819050919050565b611ecf83611e9a565b611ee3611edb82611ebc565b848454611e3e565b825550505050565b600090565b611ef8611eeb565b611f03818484611ec6565b505050565b5b81811015611f2757611f1c600082611ef0565b600181019050611f09565b5050565b601f821115611f6c57611f3d81611e0c565b611f4684611e21565b81016020851015611f55578190505b611f69611f6185611e21565b830182611f08565b50505b505050565b600082821c905092915050565b6000611f8f60001984600802611f71565b1980831691505092915050565b6000611fa88383611f7e565b9150826002028217905092915050565b611fc1826112dd565b67ffffffffffffffff811115611fda57611fd9611383565b5b611fe482546117a9565b611fef828285611f2b565b600060209050601f8311600181146120225760008415612010578287015190505b61201a8582611f9c565b865550612082565b601f19841661203086611e0c565b60005b8281101561205857848901518255600182019150602085019450602081019050612033565b868310156120755784890151612071601f891682611f7e565b8355505b6001600288020188555050505b505050505050565b7f43616e7420626520616464726573732030000000000000000000000000000000600082015250565b60006120c06011836112e8565b91506120cb8261208a565b602082019050919050565b600060208201905081810360008301526120ef816120b3565b9050919050565b600069ffffffffffffffffffff82169050919050565b612115816120f6565b811461212057600080fd5b50565b6000815190506121328161210c565b92915050565b612141816114f7565b811461214c57600080fd5b50565b60008151905061215e81612138565b92915050565b6000815190506121738161152b565b92915050565b600080600080600060a08688031215612195576121946110bb565b5b60006121a388828901612123565b95505060206121b48882890161214f565b94505060406121c588828901612164565b93505060606121d688828901612164565b92505060806121e788828901612123565b9150509295509295909350565b60006121ff826114f7565b915061220a836114f7565b92508261221a57612219611d78565b5b600160000383147f80000000000000000000000000000000000000000000000000000000000000008314161561225357612252611a33565b5b82820590509291505056fea264697066735822122076006be8336bdeb388d56184257a37c0699a5b4dae8c53026058c814ba6766a064736f6c63430008130033",
          "opcodes": "PUSH1 0xC0 PUSH1 0x40 MSTORE CALLVALUE DUP1 ISZERO PUSH3 0x11 JUMPI PUSH1 0x0 DUP1 REVERT JUMPDEST POP PUSH1 0x40 MLOAD PUSH3 0x24CD CODESIZE SUB DUP1 PUSH3 0x24CD DUP4 CODECOPY DUP2 DUP2 ADD PUSH1 0x40 MSTORE DUP2 ADD SWAP1 PUSH3 0x37 SWAP2 SWAP1 PUSH3 0x125 JUMP JUMPDEST CALLER PUSH20 0xFFFFFFFFFFFFFFFFFFFFFFFFFFFFFFFFFFFFFFFF AND PUSH1 0xA0 DUP2 PUSH20 0xFFFFFFFFFFFFFFFFFFFFFFFFFFFFFFFFFFFFFFFF AND DUP2 MSTORE POP POP PUSH20 0x694AA1769357215DE4FAC081BF1F309ADC325306 PUSH20 0xFFFFFFFFFFFFFFFFFFFFFFFFFFFFFFFFFFFFFFFF AND PUSH1 0x80 DUP2 PUSH20 0xFFFFFFFFFFFFFFFFFFFFFFFFFFFFFFFFFFFFFFFF AND DUP2 MSTORE POP POP TIMESTAMP PUSH1 0x3 DUP2 SWAP1 SSTORE POP PUSH1 0x3C DUP2 PUSH3 0xC9 SWAP2 SWAP1 PUSH3 0x186 JUMP JUMPDEST PUSH1 0x3 SLOAD PUSH3 0xD8 SWAP2 SWAP1 PUSH3 0x1D1 JUMP JUMPDEST PUSH1 0x2 DUP2 SWAP1 SSTORE POP POP PUSH3 0x20C JUMP JUMPDEST PUSH1 0x0 DUP1 REVERT JUMPDEST PUSH1 0x0 DUP2 SWAP1 POP SWAP2 SWAP1 POP JUMP JUMPDEST PUSH3 0xFF DUP2 PUSH3 0xEA JUMP JUMPDEST DUP2 EQ PUSH3 0x10B JUMPI PUSH1 0x0 DUP1 REVERT JUMPDEST POP JUMP JUMPDEST PUSH1 0x0 DUP2 MLOAD SWAP1 POP PUSH3 0x11F DUP2 PUSH3 0xF4 JUMP JUMPDEST SWAP3 SWAP2 POP POP JUMP JUMPDEST PUSH1 0x0 PUSH1 0x20 DUP3 DUP5 SUB SLT ISZERO PUSH3 0x13E JUMPI PUSH3 0x13D PUSH3 0xE5 JUMP JUMPDEST JUMPDEST PUSH1 0x0 PUSH3 0x14E DUP5 DUP3 DUP6 ADD PUSH3 0x10E JUMP JUMPDEST SWAP2 POP POP SWAP3 SWAP2 POP POP JUMP JUMPDEST PUSH32 0x4E487B7100000000000000000000000000000000000000000000000000000000 PUSH1 0x0 MSTORE PUSH1 0x11 PUSH1 0x4 MSTORE PUSH1 0x24 PUSH1 0x0 REVERT JUMPDEST PUSH1 0x0 PUSH3 0x193 DUP3 PUSH3 0xEA JUMP JUMPDEST SWAP2 POP PUSH3 0x1A0 DUP4 PUSH3 0xEA JUMP JUMPDEST SWAP3 POP DUP3 DUP3 MUL PUSH3 0x1B0 DUP2 PUSH3 0xEA JUMP JUMPDEST SWAP2 POP DUP3 DUP3 DIV DUP5 EQ DUP4 ISZERO OR PUSH3 0x1CA JUMPI PUSH3 0x1C9 PUSH3 0x157 JUMP JUMPDEST JUMPDEST POP SWAP3 SWAP2 POP POP JUMP JUMPDEST PUSH1 0x0 PUSH3 0x1DE DUP3 PUSH3 0xEA JUMP JUMPDEST SWAP2 POP PUSH3 0x1EB DUP4 PUSH3 0xEA JUMP JUMPDEST SWAP3 POP DUP3 DUP3 ADD SWAP1 POP DUP1 DUP3 GT ISZERO PUSH3 0x206 JUMPI PUSH3 0x205 PUSH3 0x157 JUMP JUMPDEST JUMPDEST SWAP3 SWAP2 POP POP JUMP JUMPDEST PUSH1 0x80 MLOAD PUSH1 0xA0 MLOAD PUSH2 0x2294 PUSH3 0x239 PUSH1 0x0 CODECOPY PUSH1 0x0 DUP2 DUP2 PUSH2 0x334 ADD MSTORE PUSH2 0xF7B ADD MSTORE PUSH1 0x0 PUSH2 0xEC5 ADD MSTORE PUSH2 0x2294 PUSH1 0x0 RETURN INVALID PUSH1 0x80 PUSH1 0x40 MSTORE PUSH1 0x4 CALLDATASIZE LT PUSH2 0xE1 JUMPI PUSH1 0x0 CALLDATALOAD PUSH1 0xE0 SHR DUP1 PUSH4 0xAFAAB451 GT PUSH2 0x7F JUMPI DUP1 PUSH4 0xBEA4DFB5 GT PUSH2 0x59 JUMPI DUP1 PUSH4 0xBEA4DFB5 EQ PUSH2 0x288 JUMPI DUP1 PUSH4 0xC57981B5 EQ PUSH2 0x2B3 JUMPI DUP1 PUSH4 0xC88C9549 EQ PUSH2 0x2DE JUMPI DUP1 PUSH4 0xE97A4020 EQ PUSH2 0x309 JUMPI PUSH2 0xE8 JUMP JUMPDEST DUP1 PUSH4 0xAFAAB451 EQ PUSH2 0x218 JUMPI DUP1 PUSH4 0xB3A23578 EQ PUSH2 0x243 JUMPI DUP1 PUSH4 0xB9998A24 EQ PUSH2 0x25F JUMPI PUSH2 0xE8 JUMP JUMPDEST DUP1 PUSH4 0x6E04FF0D GT PUSH2 0xBB JUMPI DUP1 PUSH4 0x6E04FF0D EQ PUSH2 0x158 JUMPI DUP1 PUSH4 0x89A78F1A EQ PUSH2 0x196 JUMPI DUP1 PUSH4 0x8E4BF820 EQ PUSH2 0x1D6 JUMPI DUP1 PUSH4 0xA3743B31 EQ PUSH2 0x1ED JUMPI PUSH2 0xE8 JUMP JUMPDEST DUP1 PUSH4 0x3CCFD60B EQ PUSH2 0xED JUMPI DUP1 PUSH4 0x439F5AC2 EQ PUSH2 0x104 JUMPI DUP1 PUSH4 0x4585E33B EQ PUSH2 0x12F JUMPI PUSH2 0xE8 JUMP JUMPDEST CALLDATASIZE PUSH2 0xE8 JUMPI STOP JUMPDEST PUSH1 0x0 DUP1 REVERT JUMPDEST CALLVALUE DUP1 ISZERO PUSH2 0xF9 JUMPI PUSH1 0x0 DUP1 REVERT JUMPDEST POP PUSH2 0x102 PUSH2 0x332 JUMP JUMPDEST STOP JUMPDEST CALLVALUE DUP1 ISZERO PUSH2 0x110 JUMPI PUSH1 0x0 DUP1 REVERT JUMPDEST POP PUSH2 0x119 PUSH2 0x4B2 JUMP JUMPDEST PUSH1 0x40 MLOAD PUSH2 0x126 SWAP2 SWAP1 PUSH2 0x1096 JUMP JUMPDEST PUSH1 0x40 MLOAD DUP1 SWAP2 SUB SWAP1 RETURN JUMPDEST CALLVALUE DUP1 ISZERO PUSH2 0x13B JUMPI PUSH1 0x0 DUP1 REVERT JUMPDEST POP PUSH2 0x156 PUSH1 0x4 DUP1 CALLDATASIZE SUB DUP2 ADD SWAP1 PUSH2 0x151 SWAP2 SWAP1 PUSH2 0x112A JUMP JUMPDEST PUSH2 0x4BC JUMP JUMPDEST STOP JUMPDEST CALLVALUE DUP1 ISZERO PUSH2 0x164 JUMPI PUSH1 0x0 DUP1 REVERT JUMPDEST POP PUSH2 0x17F PUSH1 0x4 DUP1 CALLDATASIZE SUB DUP2 ADD SWAP1 PUSH2 0x17A SWAP2 SWAP1 PUSH2 0x112A JUMP JUMPDEST PUSH2 0x578 JUMP JUMPDEST PUSH1 0x40 MLOAD PUSH2 0x18D SWAP3 SWAP2 SWAP1 PUSH2 0x1222 JUMP JUMPDEST PUSH1 0x40 MLOAD DUP1 SWAP2 SUB SWAP1 RETURN JUMPDEST CALLVALUE DUP1 ISZERO PUSH2 0x1A2 JUMPI PUSH1 0x0 DUP1 REVERT JUMPDEST POP PUSH2 0x1BD PUSH1 0x4 DUP1 CALLDATASIZE SUB DUP2 ADD SWAP1 PUSH2 0x1B8 SWAP2 SWAP1 PUSH2 0x12B0 JUMP JUMPDEST PUSH2 0x599 JUMP JUMPDEST PUSH1 0x40 MLOAD PUSH2 0x1CD SWAP5 SWAP4 SWAP3 SWAP2 SWAP1 PUSH2 0x1332 JUMP JUMPDEST PUSH1 0x40 MLOAD DUP1 SWAP2 SUB SWAP1 RETURN JUMPDEST CALLVALUE DUP1 ISZERO PUSH2 0x1E2 JUMPI PUSH1 0x0 DUP1 REVERT JUMPDEST POP PUSH2 0x1EB PUSH2 0x65E JUMP JUMPDEST STOP JUMPDEST CALLVALUE DUP1 ISZERO PUSH2 0x1F9 JUMPI PUSH1 0x0 DUP1 REVERT JUMPDEST POP PUSH2 0x202 PUSH2 0xACE JUMP JUMPDEST PUSH1 0x40 MLOAD PUSH2 0x20F SWAP2 SWAP1 PUSH2 0x1096 JUMP JUMPDEST PUSH1 0x40 MLOAD DUP1 SWAP2 SUB SWAP1 RETURN JUMPDEST CALLVALUE DUP1 ISZERO PUSH2 0x224 JUMPI PUSH1 0x0 DUP1 REVERT JUMPDEST POP PUSH2 0x22D PUSH2 0xAD4 JUMP JUMPDEST PUSH1 0x40 MLOAD PUSH2 0x23A SWAP2 SWAP1 PUSH2 0x1096 JUMP JUMPDEST PUSH1 0x40 MLOAD DUP1 SWAP2 SUB SWAP1 RETURN JUMPDEST PUSH2 0x25D PUSH1 0x4 DUP1 CALLDATASIZE SUB DUP2 ADD SWAP1 PUSH2 0x258 SWAP2 SWAP1 PUSH2 0x14AE JUMP JUMPDEST PUSH2 0xADA JUMP JUMPDEST STOP JUMPDEST CALLVALUE DUP1 ISZERO PUSH2 0x26B JUMPI PUSH1 0x0 DUP1 REVERT JUMPDEST POP PUSH2 0x286 PUSH1 0x4 DUP1 CALLDATASIZE SUB DUP2 ADD SWAP1 PUSH2 0x281 SWAP2 SWAP1 PUSH2 0x12B0 JUMP JUMPDEST PUSH2 0xE0E JUMP JUMPDEST STOP JUMPDEST CALLVALUE DUP1 ISZERO PUSH2 0x294 JUMPI PUSH1 0x0 DUP1 REVERT JUMPDEST POP PUSH2 0x29D PUSH2 0xEC0 JUMP JUMPDEST PUSH1 0x40 MLOAD PUSH2 0x2AA SWAP2 SWAP1 PUSH2 0x1510 JUMP JUMPDEST PUSH1 0x40 MLOAD DUP1 SWAP2 SUB SWAP1 RETURN JUMPDEST CALLVALUE DUP1 ISZERO PUSH2 0x2BF JUMPI PUSH1 0x0 DUP1 REVERT JUMPDEST POP PUSH2 0x2C8 PUSH2 0xF6E JUMP JUMPDEST PUSH1 0x40 MLOAD PUSH2 0x2D5 SWAP2 SWAP1 PUSH2 0x1096 JUMP JUMPDEST PUSH1 0x40 MLOAD DUP1 SWAP2 SUB SWAP1 RETURN JUMPDEST CALLVALUE DUP1 ISZERO PUSH2 0x2EA JUMPI PUSH1 0x0 DUP1 REVERT JUMPDEST POP PUSH2 0x2F3 PUSH2 0xF73 JUMP JUMPDEST PUSH1 0x40 MLOAD PUSH2 0x300 SWAP2 SWAP1 PUSH2 0x1096 JUMP JUMPDEST PUSH1 0x40 MLOAD DUP1 SWAP2 SUB SWAP1 RETURN JUMPDEST CALLVALUE DUP1 ISZERO PUSH2 0x315 JUMPI PUSH1 0x0 DUP1 REVERT JUMPDEST POP PUSH2 0x330 PUSH1 0x4 DUP1 CALLDATASIZE SUB DUP2 ADD SWAP1 PUSH2 0x32B SWAP2 SWAP1 PUSH2 0x1557 JUMP JUMPDEST PUSH2 0xF79 JUMP JUMPDEST STOP JUMPDEST PUSH32 0x0 PUSH20 0xFFFFFFFFFFFFFFFFFFFFFFFFFFFFFFFFFFFFFFFF AND CALLER PUSH20 0xFFFFFFFFFFFFFFFFFFFFFFFFFFFFFFFFFFFFFFFF AND EQ PUSH2 0x3C0 JUMPI PUSH1 0x40 MLOAD PUSH32 0x8C379A000000000000000000000000000000000000000000000000000000000 DUP2 MSTORE PUSH1 0x4 ADD PUSH2 0x3B7 SWAP1 PUSH2 0x15D0 JUMP JUMPDEST PUSH1 0x40 MLOAD DUP1 SWAP2 SUB SWAP1 REVERT JUMPDEST PUSH1 0x0 SELFBALANCE GT PUSH2 0x403 JUMPI PUSH1 0x40 MLOAD PUSH32 0x8C379A000000000000000000000000000000000000000000000000000000000 DUP2 MSTORE PUSH1 0x4 ADD PUSH2 0x3FA SWAP1 PUSH2 0x163C JUMP JUMPDEST PUSH1 0x40 MLOAD DUP1 SWAP2 SUB SWAP1 REVERT JUMPDEST PUSH1 0x0 CALLER PUSH20 0xFFFFFFFFFFFFFFFFFFFFFFFFFFFFFFFFFFFFFFFF AND SELFBALANCE PUSH1 0x40 MLOAD PUSH2 0x429 SWAP1 PUSH2 0x168D JUMP JUMPDEST PUSH1 0x0 PUSH1 0x40 MLOAD DUP1 DUP4 SUB DUP2 DUP6 DUP8 GAS CALL SWAP3 POP POP POP RETURNDATASIZE DUP1 PUSH1 0x0 DUP2 EQ PUSH2 0x466 JUMPI PUSH1 0x40 MLOAD SWAP2 POP PUSH1 0x1F NOT PUSH1 0x3F RETURNDATASIZE ADD AND DUP3 ADD PUSH1 0x40 MSTORE RETURNDATASIZE DUP3 MSTORE RETURNDATASIZE PUSH1 0x0 PUSH1 0x20 DUP5 ADD RETURNDATACOPY PUSH2 0x46B JUMP JUMPDEST PUSH1 0x60 SWAP2 POP JUMPDEST POP POP SWAP1 POP DUP1 PUSH2 0x4AF JUMPI PUSH1 0x40 MLOAD PUSH32 0x8C379A000000000000000000000000000000000000000000000000000000000 DUP2 MSTORE PUSH1 0x4 ADD PUSH2 0x4A6 SWAP1 PUSH2 0x16EE JUMP JUMPDEST PUSH1 0x40 MLOAD DUP1 SWAP2 SUB SWAP1 REVERT JUMPDEST POP JUMP JUMPDEST PUSH1 0x0 PUSH1 0x2 SLOAD SWAP1 POP SWAP1 JUMP JUMPDEST CALLER PUSH1 0x0 DUP1 SLOAD SWAP1 PUSH2 0x100 EXP SWAP1 DIV PUSH20 0xFFFFFFFFFFFFFFFFFFFFFFFFFFFFFFFFFFFFFFFF AND PUSH20 0xFFFFFFFFFFFFFFFFFFFFFFFFFFFFFFFFFFFFFFFF AND DUP2 PUSH20 0xFFFFFFFFFFFFFFFFFFFFFFFFFFFFFFFFFFFFFFFF AND EQ PUSH2 0x54B JUMPI PUSH1 0x40 MLOAD PUSH32 0x8C379A000000000000000000000000000000000000000000000000000000000 DUP2 MSTORE PUSH1 0x4 ADD PUSH2 0x542 SWAP1 PUSH2 0x175A JUMP JUMPDEST PUSH1 0x40 MLOAD DUP1 SWAP2 SUB SWAP1 REVERT JUMPDEST PUSH1 0x2 SLOAD TIMESTAMP LT ISZERO DUP1 ISZERO PUSH2 0x55F JUMPI POP PUSH1 0x0 PUSH1 0x1 SLOAD EQ JUMPDEST ISZERO PUSH2 0x573 JUMPI PUSH2 0x56C PUSH2 0xEC0 JUMP JUMPDEST PUSH1 0x1 DUP2 SWAP1 SSTORE POP JUMPDEST POP POP POP JUMP JUMPDEST PUSH1 0x0 PUSH1 0x60 PUSH1 0x2 SLOAD TIMESTAMP LT ISZERO DUP1 ISZERO PUSH2 0x590 JUMPI POP PUSH1 0x0 PUSH1 0x1 SLOAD EQ JUMPDEST SWAP2 POP SWAP3 POP SWAP3 SWAP1 POP JUMP JUMPDEST PUSH1 0x4 PUSH1 0x20 MSTORE DUP1 PUSH1 0x0 MSTORE PUSH1 0x40 PUSH1 0x0 KECCAK256 PUSH1 0x0 SWAP2 POP SWAP1 POP DUP1 PUSH1 0x0 ADD SLOAD SWAP1 DUP1 PUSH1 0x1 ADD SLOAD SWAP1 DUP1 PUSH1 0x2 ADD DUP1 SLOAD PUSH2 0x5C8 SWAP1 PUSH2 0x17A9 JUMP JUMPDEST DUP1 PUSH1 0x1F ADD PUSH1 0x20 DUP1 SWAP2 DIV MUL PUSH1 0x20 ADD PUSH1 0x40 MLOAD SWAP1 DUP2 ADD PUSH1 0x40 MSTORE DUP1 SWAP3 SWAP2 SWAP1 DUP2 DUP2 MSTORE PUSH1 0x20 ADD DUP3 DUP1 SLOAD PUSH2 0x5F4 SWAP1 PUSH2 0x17A9 JUMP JUMPDEST DUP1 ISZERO PUSH2 0x641 JUMPI DUP1 PUSH1 0x1F LT PUSH2 0x616 JUMPI PUSH2 0x100 DUP1 DUP4 SLOAD DIV MUL DUP4 MSTORE SWAP2 PUSH1 0x20 ADD SWAP2 PUSH2 0x641 JUMP JUMPDEST DUP3 ADD SWAP2 SWAP1 PUSH1 0x0 MSTORE PUSH1 0x20 PUSH1 0x0 KECCAK256 SWAP1 JUMPDEST DUP2 SLOAD DUP2 MSTORE SWAP1 PUSH1 0x1 ADD SWAP1 PUSH1 0x20 ADD DUP1 DUP4 GT PUSH2 0x624 JUMPI DUP3 SWAP1 SUB PUSH1 0x1F AND DUP3 ADD SWAP2 JUMPDEST POP POP POP POP POP SWAP1 DUP1 PUSH1 0x3 ADD PUSH1 0x0 SWAP1 SLOAD SWAP1 PUSH2 0x100 EXP SWAP1 DIV PUSH1 0xFF AND SWAP1 POP DUP5 JUMP JUMPDEST PUSH1 0x0 PUSH1 0x4 PUSH1 0x0 CALLER PUSH20 0xFFFFFFFFFFFFFFFFFFFFFFFFFFFFFFFFFFFFFFFF AND PUSH20 0xFFFFFFFFFFFFFFFFFFFFFFFFFFFFFFFFFFFFFFFF AND DUP2 MSTORE PUSH1 0x20 ADD SWAP1 DUP2 MSTORE PUSH1 0x20 ADD PUSH1 0x0 KECCAK256 PUSH1 0x40 MLOAD DUP1 PUSH1 0x80 ADD PUSH1 0x40 MSTORE SWAP1 DUP2 PUSH1 0x0 DUP3 ADD SLOAD DUP2 MSTORE PUSH1 0x20 ADD PUSH1 0x1 DUP3 ADD SLOAD DUP2 MSTORE PUSH1 0x20 ADD PUSH1 0x2 DUP3 ADD DUP1 SLOAD PUSH2 0x6CE SWAP1 PUSH2 0x17A9 JUMP JUMPDEST DUP1 PUSH1 0x1F ADD PUSH1 0x20 DUP1 SWAP2 DIV MUL PUSH1 0x20 ADD PUSH1 0x40 MLOAD SWAP1 DUP2 ADD PUSH1 0x40 MSTORE DUP1 SWAP3 SWAP2 SWAP1 DUP2 DUP2 MSTORE PUSH1 0x20 ADD DUP3 DUP1 SLOAD PUSH2 0x6FA SWAP1 PUSH2 0x17A9 JUMP JUMPDEST DUP1 ISZERO PUSH2 0x747 JUMPI DUP1 PUSH1 0x1F LT PUSH2 0x71C JUMPI PUSH2 0x100 DUP1 DUP4 SLOAD DIV MUL DUP4 MSTORE SWAP2 PUSH1 0x20 ADD SWAP2 PUSH2 0x747 JUMP JUMPDEST DUP3 ADD SWAP2 SWAP1 PUSH1 0x0 MSTORE PUSH1 0x20 PUSH1 0x0 KECCAK256 SWAP1 JUMPDEST DUP2 SLOAD DUP2 MSTORE SWAP1 PUSH1 0x1 ADD SWAP1 PUSH1 0x20 ADD DUP1 DUP4 GT PUSH2 0x72A JUMPI DUP3 SWAP1 SUB PUSH1 0x1F AND DUP3 ADD SWAP2 JUMPDEST POP POP POP POP POP DUP2 MSTORE PUSH1 0x20 ADD PUSH1 0x3 DUP3 ADD PUSH1 0x0 SWAP1 SLOAD SWAP1 PUSH2 0x100 EXP SWAP1 DIV PUSH1 0xFF AND ISZERO ISZERO ISZERO ISZERO DUP2 MSTORE POP POP SWAP1 POP PUSH1 0x2 SLOAD TIMESTAMP GT PUSH2 0x7B1 JUMPI PUSH1 0x40 MLOAD PUSH32 0x8C379A000000000000000000000000000000000000000000000000000000000 DUP2 MSTORE PUSH1 0x4 ADD PUSH2 0x7A8 SWAP1 PUSH2 0x1826 JUMP JUMPDEST PUSH1 0x40 MLOAD DUP1 SWAP2 SUB SWAP1 REVERT JUMPDEST PUSH1 0x1 ISZERO ISZERO DUP2 PUSH1 0x60 ADD MLOAD ISZERO ISZERO EQ PUSH2 0x7FC JUMPI PUSH1 0x40 MLOAD PUSH32 0x8C379A000000000000000000000000000000000000000000000000000000000 DUP2 MSTORE PUSH1 0x4 ADD PUSH2 0x7F3 SWAP1 PUSH2 0x1892 JUMP JUMPDEST PUSH1 0x40 MLOAD DUP1 SWAP2 SUB SWAP1 REVERT JUMPDEST PUSH1 0x0 PUSH1 0x1 SLOAD SUB PUSH2 0x841 JUMPI PUSH1 0x40 MLOAD PUSH32 0x8C379A000000000000000000000000000000000000000000000000000000000 DUP2 MSTORE PUSH1 0x4 ADD PUSH2 0x838 SWAP1 PUSH2 0x18FE JUMP JUMPDEST PUSH1 0x40 MLOAD DUP1 SWAP2 SUB SWAP1 REVERT JUMPDEST PUSH1 0x0 DUP2 PUSH1 0x40 ADD MLOAD PUSH1 0x40 MLOAD PUSH1 0x20 ADD PUSH2 0x858 SWAP2 SWAP1 PUSH2 0x195A JUMP JUMPDEST PUSH1 0x40 MLOAD PUSH1 0x20 DUP2 DUP4 SUB SUB DUP2 MSTORE SWAP1 PUSH1 0x40 MSTORE DUP1 MLOAD SWAP1 PUSH1 0x20 ADD KECCAK256 SWAP1 POP PUSH1 0x0 PUSH1 0x40 MLOAD PUSH1 0x20 ADD PUSH2 0x881 SWAP1 PUSH2 0x19BD JUMP JUMPDEST PUSH1 0x40 MLOAD PUSH1 0x20 DUP2 DUP4 SUB SUB DUP2 MSTORE SWAP1 PUSH1 0x40 MSTORE DUP1 MLOAD SWAP1 PUSH1 0x20 ADD KECCAK256 SWAP1 POP PUSH1 0x0 PUSH1 0x40 MLOAD PUSH1 0x20 ADD PUSH2 0x8AA SWAP1 PUSH2 0x1A1E JUMP JUMPDEST PUSH1 0x40 MLOAD PUSH1 0x20 DUP2 DUP4 SUB SUB DUP2 MSTORE SWAP1 PUSH1 0x40 MSTORE DUP1 MLOAD SWAP1 PUSH1 0x20 ADD KECCAK256 SWAP1 POP PUSH1 0x0 DUP3 DUP5 EQ DUP1 ISZERO PUSH2 0x8D9 JUMPI POP PUSH1 0x1 SLOAD DUP6 PUSH1 0x20 ADD MLOAD LT ISZERO JUMPDEST DUP1 PUSH2 0x8F5 JUMPI POP DUP2 DUP5 EQ DUP1 ISZERO PUSH2 0x8F4 JUMPI POP PUSH1 0x1 SLOAD DUP6 PUSH1 0x20 ADD MLOAD GT ISZERO JUMPDEST JUMPDEST SWAP1 POP PUSH1 0x0 DUP2 PUSH2 0x905 JUMPI PUSH1 0x0 PUSH2 0x917 JUMP JUMPDEST PUSH1 0x2 DUP7 PUSH1 0x0 ADD MLOAD PUSH2 0x916 SWAP2 SWAP1 PUSH2 0x1A62 JUMP JUMPDEST JUMPDEST SWAP1 POP DUP1 SELFBALANCE LT ISZERO PUSH2 0x95C JUMPI PUSH1 0x40 MLOAD PUSH32 0x8C379A000000000000000000000000000000000000000000000000000000000 DUP2 MSTORE PUSH1 0x4 ADD PUSH2 0x953 SWAP1 PUSH2 0x1B16 JUMP JUMPDEST PUSH1 0x40 MLOAD DUP1 SWAP2 SUB SWAP1 REVERT JUMPDEST PUSH1 0x4 PUSH1 0x0 CALLER PUSH20 0xFFFFFFFFFFFFFFFFFFFFFFFFFFFFFFFFFFFFFFFF AND PUSH20 0xFFFFFFFFFFFFFFFFFFFFFFFFFFFFFFFFFFFFFFFF AND DUP2 MSTORE PUSH1 0x20 ADD SWAP1 DUP2 MSTORE PUSH1 0x20 ADD PUSH1 0x0 KECCAK256 PUSH1 0x0 DUP1 DUP3 ADD PUSH1 0x0 SWAP1 SSTORE PUSH1 0x1 DUP3 ADD PUSH1 0x0 SWAP1 SSTORE PUSH1 0x2 DUP3 ADD PUSH1 0x0 PUSH2 0x9BC SWAP2 SWAP1 PUSH2 0x1020 JUMP JUMPDEST PUSH1 0x3 DUP3 ADD PUSH1 0x0 PUSH2 0x100 EXP DUP2 SLOAD SWAP1 PUSH1 0xFF MUL NOT AND SWAP1 SSTORE POP POP PUSH1 0x0 CALLER PUSH20 0xFFFFFFFFFFFFFFFFFFFFFFFFFFFFFFFFFFFFFFFF AND DUP3 PUSH1 0x40 MLOAD PUSH2 0x9F8 SWAP1 PUSH2 0x168D JUMP JUMPDEST PUSH1 0x0 PUSH1 0x40 MLOAD DUP1 DUP4 SUB DUP2 DUP6 DUP8 GAS CALL SWAP3 POP POP POP RETURNDATASIZE DUP1 PUSH1 0x0 DUP2 EQ PUSH2 0xA35 JUMPI PUSH1 0x40 MLOAD SWAP2 POP PUSH1 0x1F NOT PUSH1 0x3F RETURNDATASIZE ADD AND DUP3 ADD PUSH1 0x40 MSTORE RETURNDATASIZE DUP3 MSTORE RETURNDATASIZE PUSH1 0x0 PUSH1 0x20 DUP5 ADD RETURNDATACOPY PUSH2 0xA3A JUMP JUMPDEST PUSH1 0x60 SWAP2 POP JUMPDEST POP POP SWAP1 POP DUP1 PUSH2 0xA7E JUMPI PUSH1 0x40 MLOAD PUSH32 0x8C379A000000000000000000000000000000000000000000000000000000000 DUP2 MSTORE PUSH1 0x4 ADD PUSH2 0xA75 SWAP1 PUSH2 0x16EE JUMP JUMPDEST PUSH1 0x40 MLOAD DUP1 SWAP2 SUB SWAP1 REVERT JUMPDEST PUSH1 0x1 SLOAD DUP3 CALLER PUSH20 0xFFFFFFFFFFFFFFFFFFFFFFFFFFFFFFFFFFFFFFFF AND PUSH32 0x468AEEEC0E901C52363552A06C1E39331D44C3CC886EB200AF127DED3F380F82 PUSH1 0x40 MLOAD PUSH1 0x40 MLOAD DUP1 SWAP2 SUB SWAP1 LOG4 POP POP POP POP POP POP POP JUMP JUMPDEST PUSH1 0x2 SLOAD DUP2 JUMP JUMPDEST PUSH1 0x3 SLOAD DUP2 JUMP JUMPDEST PUSH1 0x0 TIMESTAMP SWAP1 POP PUSH8 0x2C68AF0BB140000 CALLVALUE LT ISZERO PUSH2 0xB2A JUMPI PUSH1 0x40 MLOAD PUSH32 0x8C379A000000000000000000000000000000000000000000000000000000000 DUP2 MSTORE PUSH1 0x4 ADD PUSH2 0xB21 SWAP1 PUSH2 0x1BA8 JUMP JUMPDEST PUSH1 0x40 MLOAD DUP1 SWAP2 SUB SWAP1 REVERT JUMPDEST PUSH1 0x0 ISZERO ISZERO PUSH1 0x4 PUSH1 0x0 CALLER PUSH20 0xFFFFFFFFFFFFFFFFFFFFFFFFFFFFFFFFFFFFFFFF AND PUSH20 0xFFFFFFFFFFFFFFFFFFFFFFFFFFFFFFFFFFFFFFFF AND DUP2 MSTORE PUSH1 0x20 ADD SWAP1 DUP2 MSTORE PUSH1 0x20 ADD PUSH1 0x0 KECCAK256 PUSH1 0x3 ADD PUSH1 0x0 SWAP1 SLOAD SWAP1 PUSH2 0x100 EXP SWAP1 DIV PUSH1 0xFF AND ISZERO ISZERO EQ PUSH2 0xBC0 JUMPI PUSH1 0x40 MLOAD PUSH32 0x8C379A000000000000000000000000000000000000000000000000000000000 DUP2 MSTORE PUSH1 0x4 ADD PUSH2 0xBB7 SWAP1 PUSH2 0x1C14 JUMP JUMPDEST PUSH1 0x40 MLOAD DUP1 SWAP2 SUB SWAP1 REVERT JUMPDEST ORIGIN PUSH20 0xFFFFFFFFFFFFFFFFFFFFFFFFFFFFFFFFFFFFFFFF AND CALLER PUSH20 0xFFFFFFFFFFFFFFFFFFFFFFFFFFFFFFFFFFFFFFFF AND EQ PUSH2 0xC2E JUMPI PUSH1 0x40 MLOAD PUSH32 0x8C379A000000000000000000000000000000000000000000000000000000000 DUP2 MSTORE PUSH1 0x4 ADD PUSH2 0xC25 SWAP1 PUSH2 0x1C80 JUMP JUMPDEST PUSH1 0x40 MLOAD DUP1 SWAP2 SUB SWAP1 REVERT JUMPDEST PUSH1 0x3 SLOAD DUP2 LT ISZERO PUSH2 0xC73 JUMPI PUSH1 0x40 MLOAD PUSH32 0x8C379A000000000000000000000000000000000000000000000000000000000 DUP2 MSTORE PUSH1 0x4 ADD PUSH2 0xC6A SWAP1 PUSH2 0x1CEC JUMP JUMPDEST PUSH1 0x40 MLOAD DUP1 SWAP2 SUB SWAP1 REVERT JUMPDEST PUSH1 0x2 SLOAD DUP2 GT ISZERO PUSH2 0xCB8 JUMPI PUSH1 0x40 MLOAD PUSH32 0x8C379A000000000000000000000000000000000000000000000000000000000 DUP2 MSTORE PUSH1 0x4 ADD PUSH2 0xCAF SWAP1 PUSH2 0x1D58 JUMP JUMPDEST PUSH1 0x40 MLOAD DUP1 SWAP2 SUB SWAP1 REVERT JUMPDEST PUSH1 0x0 PUSH2 0x2710 PUSH1 0xC8 CALLVALUE PUSH2 0xCCA SWAP2 SWAP1 PUSH2 0x1A62 JUMP JUMPDEST PUSH2 0xCD4 SWAP2 SWAP1 PUSH2 0x1DA7 JUMP JUMPDEST SWAP1 POP PUSH1 0x0 DUP2 CALLVALUE PUSH2 0xCE4 SWAP2 SWAP1 PUSH2 0x1DD8 JUMP JUMPDEST SWAP1 POP PUSH1 0x0 PUSH2 0xCF0 PUSH2 0xEC0 JUMP JUMPDEST SWAP1 POP PUSH1 0x40 MLOAD DUP1 PUSH1 0x80 ADD PUSH1 0x40 MSTORE DUP1 DUP4 DUP2 MSTORE PUSH1 0x20 ADD DUP3 DUP2 MSTORE PUSH1 0x20 ADD DUP7 DUP2 MSTORE PUSH1 0x20 ADD PUSH1 0x1 ISZERO ISZERO DUP2 MSTORE POP PUSH1 0x4 PUSH1 0x0 CALLER PUSH20 0xFFFFFFFFFFFFFFFFFFFFFFFFFFFFFFFFFFFFFFFF AND PUSH20 0xFFFFFFFFFFFFFFFFFFFFFFFFFFFFFFFFFFFFFFFF AND DUP2 MSTORE PUSH1 0x20 ADD SWAP1 DUP2 MSTORE PUSH1 0x20 ADD PUSH1 0x0 KECCAK256 PUSH1 0x0 DUP3 ADD MLOAD DUP2 PUSH1 0x0 ADD SSTORE PUSH1 0x20 DUP3 ADD MLOAD DUP2 PUSH1 0x1 ADD SSTORE PUSH1 0x40 DUP3 ADD MLOAD DUP2 PUSH1 0x2 ADD SWAP1 DUP2 PUSH2 0xD7E SWAP2 SWAP1 PUSH2 0x1FB8 JUMP JUMPDEST POP PUSH1 0x60 DUP3 ADD MLOAD DUP2 PUSH1 0x3 ADD PUSH1 0x0 PUSH2 0x100 EXP DUP2 SLOAD DUP2 PUSH1 0xFF MUL NOT AND SWAP1 DUP4 ISZERO ISZERO MUL OR SWAP1 SSTORE POP SWAP1 POP POP DUP5 PUSH1 0x40 MLOAD PUSH2 0xDB0 SWAP2 SWAP1 PUSH2 0x195A JUMP JUMPDEST PUSH1 0x40 MLOAD DUP1 SWAP2 SUB SWAP1 KECCAK256 DUP2 CALLER PUSH20 0xFFFFFFFFFFFFFFFFFFFFFFFFFFFFFFFFFFFFFFFF AND PUSH32 0x2BC3E3CA13EBBFDEC35E57CFCBF9C9D35B7120218D9FD7E429077218044B988 DUP6 PUSH1 0x40 MLOAD PUSH2 0xDFF SWAP2 SWAP1 PUSH2 0x1096 JUMP JUMPDEST PUSH1 0x40 MLOAD DUP1 SWAP2 SUB SWAP1 LOG4 POP POP POP POP POP JUMP JUMPDEST PUSH1 0x0 PUSH20 0xFFFFFFFFFFFFFFFFFFFFFFFFFFFFFFFFFFFFFFFF AND DUP2 PUSH20 0xFFFFFFFFFFFFFFFFFFFFFFFFFFFFFFFFFFFFFFFF AND SUB PUSH2 0xE7D JUMPI PUSH1 0x40 MLOAD PUSH32 0x8C379A000000000000000000000000000000000000000000000000000000000 DUP2 MSTORE PUSH1 0x4 ADD PUSH2 0xE74 SWAP1 PUSH2 0x20D6 JUMP JUMPDEST PUSH1 0x40 MLOAD DUP1 SWAP2 SUB SWAP1 REVERT JUMPDEST DUP1 PUSH1 0x0 DUP1 PUSH2 0x100 EXP DUP2 SLOAD DUP2 PUSH20 0xFFFFFFFFFFFFFFFFFFFFFFFFFFFFFFFFFFFFFFFF MUL NOT AND SWAP1 DUP4 PUSH20 0xFFFFFFFFFFFFFFFFFFFFFFFFFFFFFFFFFFFFFFFF AND MUL OR SWAP1 SSTORE POP POP JUMP JUMPDEST PUSH1 0x0 DUP1 PUSH32 0x0 PUSH20 0xFFFFFFFFFFFFFFFFFFFFFFFFFFFFFFFFFFFFFFFF AND PUSH4 0xFEAF968C PUSH1 0x40 MLOAD DUP2 PUSH4 0xFFFFFFFF AND PUSH1 0xE0 SHL DUP2 MSTORE PUSH1 0x4 ADD PUSH1 0xA0 PUSH1 0x40 MLOAD DUP1 DUP4 SUB DUP2 DUP7 GAS STATICCALL ISZERO DUP1 ISZERO PUSH2 0xF2E JUMPI RETURNDATASIZE PUSH1 0x0 DUP1 RETURNDATACOPY RETURNDATASIZE PUSH1 0x0 REVERT JUMPDEST POP POP POP POP PUSH1 0x40 MLOAD RETURNDATASIZE PUSH1 0x1F NOT PUSH1 0x1F DUP3 ADD AND DUP3 ADD DUP1 PUSH1 0x40 MSTORE POP DUP2 ADD SWAP1 PUSH2 0xF52 SWAP2 SWAP1 PUSH2 0x2179 JUMP JUMPDEST POP POP POP SWAP2 POP POP PUSH4 0x5F5E100 DUP2 PUSH2 0xF68 SWAP2 SWAP1 PUSH2 0x21F4 JUMP JUMPDEST SWAP2 POP POP SWAP1 JUMP JUMPDEST PUSH1 0xC8 DUP2 JUMP JUMPDEST PUSH1 0x1 SLOAD DUP2 JUMP JUMPDEST PUSH32 0x0 PUSH20 0xFFFFFFFFFFFFFFFFFFFFFFFFFFFFFFFFFFFFFFFF AND CALLER PUSH20 0xFFFFFFFFFFFFFFFFFFFFFFFFFFFFFFFFFFFFFFFF AND EQ PUSH2 0x1007 JUMPI PUSH1 0x40 MLOAD PUSH32 0x8C379A000000000000000000000000000000000000000000000000000000000 DUP2 MSTORE PUSH1 0x4 ADD PUSH2 0xFFE SWAP1 PUSH2 0x15D0 JUMP JUMPDEST PUSH1 0x40 MLOAD DUP1 SWAP2 SUB SWAP1 REVERT JUMPDEST TIMESTAMP PUSH1 0x3 DUP2 SWAP1 SSTORE POP DUP1 PUSH1 0x2 DUP2 SWAP1 SSTORE POP PUSH1 0x0 PUSH1 0x1 DUP2 SWAP1 SSTORE POP POP JUMP JUMPDEST POP DUP1 SLOAD PUSH2 0x102C SWAP1 PUSH2 0x17A9 JUMP JUMPDEST PUSH1 0x0 DUP3 SSTORE DUP1 PUSH1 0x1F LT PUSH2 0x103E JUMPI POP PUSH2 0x105D JUMP JUMPDEST PUSH1 0x1F ADD PUSH1 0x20 SWAP1 DIV SWAP1 PUSH1 0x0 MSTORE PUSH1 0x20 PUSH1 0x0 KECCAK256 SWAP1 DUP2 ADD SWAP1 PUSH2 0x105C SWAP2 SWAP1 PUSH2 0x1060 JUMP JUMPDEST JUMPDEST POP JUMP JUMPDEST JUMPDEST DUP1 DUP3 GT ISZERO PUSH2 0x1079 JUMPI PUSH1 0x0 DUP2 PUSH1 0x0 SWAP1 SSTORE POP PUSH1 0x1 ADD PUSH2 0x1061 JUMP JUMPDEST POP SWAP1 JUMP JUMPDEST PUSH1 0x0 DUP2 SWAP1 POP SWAP2 SWAP1 POP JUMP JUMPDEST PUSH2 0x1090 DUP2 PUSH2 0x107D JUMP JUMPDEST DUP3 MSTORE POP POP JUMP JUMPDEST PUSH1 0x0 PUSH1 0x20 DUP3 ADD SWAP1 POP PUSH2 0x10AB PUSH1 0x0 DUP4 ADD DUP5 PUSH2 0x1087 JUMP JUMPDEST SWAP3 SWAP2 POP POP JUMP JUMPDEST PUSH1 0x0 PUSH1 0x40 MLOAD SWAP1 POP SWAP1 JUMP JUMPDEST PUSH1 0x0 DUP1 REVERT JUMPDEST PUSH1 0x0 DUP1 REVERT JUMPDEST PUSH1 0x0 DUP1 REVERT JUMPDEST PUSH1 0x0 DUP1 REVERT JUMPDEST PUSH1 0x0 DUP1 REVERT JUMPDEST PUSH1 0x0 DUP1 DUP4 PUSH1 0x1F DUP5 ADD SLT PUSH2 0x10EA JUMPI PUSH2 0x10E9 PUSH2 0x10C5 JUMP JUMPDEST JUMPDEST DUP3 CALLDATALOAD SWAP1 POP PUSH8 0xFFFFFFFFFFFFFFFF DUP2 GT ISZERO PUSH2 0x1107 JUMPI PUSH2 0x1106 PUSH2 0x10CA JUMP JUMPDEST JUMPDEST PUSH1 0x20 DUP4 ADD SWAP2 POP DUP4 PUSH1 0x1 DUP3 MUL DUP4 ADD GT ISZERO PUSH2 0x1123 JUMPI PUSH2 0x1122 PUSH2 0x10CF JUMP JUMPDEST JUMPDEST SWAP3 POP SWAP3 SWAP1 POP JUMP JUMPDEST PUSH1 0x0 DUP1 PUSH1 0x20 DUP4 DUP6 SUB SLT ISZERO PUSH2 0x1141 JUMPI PUSH2 0x1140 PUSH2 0x10BB JUMP JUMPDEST JUMPDEST PUSH1 0x0 DUP4 ADD CALLDATALOAD PUSH8 0xFFFFFFFFFFFFFFFF DUP2 GT ISZERO PUSH2 0x115F JUMPI PUSH2 0x115E PUSH2 0x10C0 JUMP JUMPDEST JUMPDEST PUSH2 0x116B DUP6 DUP3 DUP7 ADD PUSH2 0x10D4 JUMP JUMPDEST SWAP3 POP SWAP3 POP POP SWAP3 POP SWAP3 SWAP1 POP JUMP JUMPDEST PUSH1 0x0 DUP2 ISZERO ISZERO SWAP1 POP SWAP2 SWAP1 POP JUMP JUMPDEST PUSH2 0x118C DUP2 PUSH2 0x1177 JUMP JUMPDEST DUP3 MSTORE POP POP JUMP JUMPDEST PUSH1 0x0 DUP2 MLOAD SWAP1 POP SWAP2 SWAP1 POP JUMP JUMPDEST PUSH1 0x0 DUP3 DUP3 MSTORE PUSH1 0x20 DUP3 ADD SWAP1 POP SWAP3 SWAP2 POP POP JUMP JUMPDEST PUSH1 0x0 JUMPDEST DUP4 DUP2 LT ISZERO PUSH2 0x11CC JUMPI DUP1 DUP3 ADD MLOAD DUP2 DUP5 ADD MSTORE PUSH1 0x20 DUP2 ADD SWAP1 POP PUSH2 0x11B1 JUMP JUMPDEST PUSH1 0x0 DUP5 DUP5 ADD MSTORE POP POP POP POP JUMP JUMPDEST PUSH1 0x0 PUSH1 0x1F NOT PUSH1 0x1F DUP4 ADD AND SWAP1 POP SWAP2 SWAP1 POP JUMP JUMPDEST PUSH1 0x0 PUSH2 0x11F4 DUP3 PUSH2 0x1192 JUMP JUMPDEST PUSH2 0x11FE DUP2 DUP6 PUSH2 0x119D JUMP JUMPDEST SWAP4 POP PUSH2 0x120E DUP2 DUP6 PUSH1 0x20 DUP7 ADD PUSH2 0x11AE JUMP JUMPDEST PUSH2 0x1217 DUP2 PUSH2 0x11D8 JUMP JUMPDEST DUP5 ADD SWAP2 POP POP SWAP3 SWAP2 POP POP JUMP JUMPDEST PUSH1 0x0 PUSH1 0x40 DUP3 ADD SWAP1 POP PUSH2 0x1237 PUSH1 0x0 DUP4 ADD DUP6 PUSH2 0x1183 JUMP JUMPDEST DUP2 DUP2 SUB PUSH1 0x20 DUP4 ADD MSTORE PUSH2 0x1249 DUP2 DUP5 PUSH2 0x11E9 JUMP JUMPDEST SWAP1 POP SWAP4 SWAP3 POP POP POP JUMP JUMPDEST PUSH1 0x0 PUSH20 0xFFFFFFFFFFFFFFFFFFFFFFFFFFFFFFFFFFFFFFFF DUP3 AND SWAP1 POP SWAP2 SWAP1 POP JUMP JUMPDEST PUSH1 0x0 PUSH2 0x127D DUP3 PUSH2 0x1252 JUMP JUMPDEST SWAP1 POP SWAP2 SWAP1 POP JUMP JUMPDEST PUSH2 0x128D DUP2 PUSH2 0x1272 JUMP JUMPDEST DUP2 EQ PUSH2 0x1298 JUMPI PUSH1 0x0 DUP1 REVERT JUMPDEST POP JUMP JUMPDEST PUSH1 0x0 DUP2 CALLDATALOAD SWAP1 POP PUSH2 0x12AA DUP2 PUSH2 0x1284 JUMP JUMPDEST SWAP3 SWAP2 POP POP JUMP JUMPDEST PUSH1 0x0 PUSH1 0x20 DUP3 DUP5 SUB SLT ISZERO PUSH2 0x12C6 JUMPI PUSH2 0x12C5 PUSH2 0x10BB JUMP JUMPDEST JUMPDEST PUSH1 0x0 PUSH2 0x12D4 DUP5 DUP3 DUP6 ADD PUSH2 0x129B JUMP JUMPDEST SWAP2 POP POP SWAP3 SWAP2 POP POP JUMP JUMPDEST PUSH1 0x0 DUP2 MLOAD SWAP1 POP SWAP2 SWAP1 POP JUMP JUMPDEST PUSH1 0x0 DUP3 DUP3 MSTORE PUSH1 0x20 DUP3 ADD SWAP1 POP SWAP3 SWAP2 POP POP JUMP JUMPDEST PUSH1 0x0 PUSH2 0x1304 DUP3 PUSH2 0x12DD JUMP JUMPDEST PUSH2 0x130E DUP2 DUP6 PUSH2 0x12E8 JUMP JUMPDEST SWAP4 POP PUSH2 0x131E DUP2 DUP6 PUSH1 0x20 DUP7 ADD PUSH2 0x11AE JUMP JUMPDEST PUSH2 0x1327 DUP2 PUSH2 0x11D8 JUMP JUMPDEST DUP5 ADD SWAP2 POP POP SWAP3 SWAP2 POP POP JUMP JUMPDEST PUSH1 0x0 PUSH1 0x80 DUP3 ADD SWAP1 POP PUSH2 0x1347 PUSH1 0x0 DUP4 ADD DUP8 PUSH2 0x1087 JUMP JUMPDEST PUSH2 0x1354 PUSH1 0x20 DUP4 ADD DUP7 PUSH2 0x1087 JUMP JUMPDEST DUP2 DUP2 SUB PUSH1 0x40 DUP4 ADD MSTORE PUSH2 0x1366 DUP2 DUP6 PUSH2 0x12F9 JUMP JUMPDEST SWAP1 POP PUSH2 0x1375 PUSH1 0x60 DUP4 ADD DUP5 PUSH2 0x1183 JUMP JUMPDEST SWAP6 SWAP5 POP POP POP POP POP JUMP JUMPDEST PUSH1 0x0 DUP1 REVERT JUMPDEST PUSH32 0x4E487B7100000000000000000000000000000000000000000000000000000000 PUSH1 0x0 MSTORE PUSH1 0x41 PUSH1 0x4 MSTORE PUSH1 0x24 PUSH1 0x0 REVERT JUMPDEST PUSH2 0x13BB DUP3 PUSH2 0x11D8 JUMP JUMPDEST DUP2 ADD DUP2 DUP2 LT PUSH8 0xFFFFFFFFFFFFFFFF DUP3 GT OR ISZERO PUSH2 0x13DA JUMPI PUSH2 0x13D9 PUSH2 0x1383 JUMP JUMPDEST JUMPDEST DUP1 PUSH1 0x40 MSTORE POP POP POP JUMP JUMPDEST PUSH1 0x0 PUSH2 0x13ED PUSH2 0x10B1 JUMP JUMPDEST SWAP1 POP PUSH2 0x13F9 DUP3 DUP3 PUSH2 0x13B2 JUMP JUMPDEST SWAP2 SWAP1 POP JUMP JUMPDEST PUSH1 0x0 PUSH8 0xFFFFFFFFFFFFFFFF DUP3 GT ISZERO PUSH2 0x1419 JUMPI PUSH2 0x1418 PUSH2 0x1383 JUMP JUMPDEST JUMPDEST PUSH2 0x1422 DUP3 PUSH2 0x11D8 JUMP JUMPDEST SWAP1 POP PUSH1 0x20 DUP2 ADD SWAP1 POP SWAP2 SWAP1 POP JUMP JUMPDEST DUP3 DUP2 DUP4 CALLDATACOPY PUSH1 0x0 DUP4 DUP4 ADD MSTORE POP POP POP JUMP JUMPDEST PUSH1 0x0 PUSH2 0x1451 PUSH2 0x144C DUP5 PUSH2 0x13FE JUMP JUMPDEST PUSH2 0x13E3 JUMP JUMPDEST SWAP1 POP DUP3 DUP2 MSTORE PUSH1 0x20 DUP2 ADD DUP5 DUP5 DUP5 ADD GT ISZERO PUSH2 0x146D JUMPI PUSH2 0x146C PUSH2 0x137E JUMP JUMPDEST JUMPDEST PUSH2 0x1478 DUP5 DUP3 DUP6 PUSH2 0x142F JUMP JUMPDEST POP SWAP4 SWAP3 POP POP POP JUMP JUMPDEST PUSH1 0x0 DUP3 PUSH1 0x1F DUP4 ADD SLT PUSH2 0x1495 JUMPI PUSH2 0x1494 PUSH2 0x10C5 JUMP JUMPDEST JUMPDEST DUP2 CALLDATALOAD PUSH2 0x14A5 DUP5 DUP3 PUSH1 0x20 DUP7 ADD PUSH2 0x143E JUMP JUMPDEST SWAP2 POP POP SWAP3 SWAP2 POP POP JUMP JUMPDEST PUSH1 0x0 PUSH1 0x20 DUP3 DUP5 SUB SLT ISZERO PUSH2 0x14C4 JUMPI PUSH2 0x14C3 PUSH2 0x10BB JUMP JUMPDEST JUMPDEST PUSH1 0x0 DUP3 ADD CALLDATALOAD PUSH8 0xFFFFFFFFFFFFFFFF DUP2 GT ISZERO PUSH2 0x14E2 JUMPI PUSH2 0x14E1 PUSH2 0x10C0 JUMP JUMPDEST JUMPDEST PUSH2 0x14EE DUP5 DUP3 DUP6 ADD PUSH2 0x1480 JUMP JUMPDEST SWAP2 POP POP SWAP3 SWAP2 POP POP JUMP JUMPDEST PUSH1 0x0 DUP2 SWAP1 POP SWAP2 SWAP1 POP JUMP JUMPDEST PUSH2 0x150A DUP2 PUSH2 0x14F7 JUMP JUMPDEST DUP3 MSTORE POP POP JUMP JUMPDEST PUSH1 0x0 PUSH1 0x20 DUP3 ADD SWAP1 POP PUSH2 0x1525 PUSH1 0x0 DUP4 ADD DUP5 PUSH2 0x1501 JUMP JUMPDEST SWAP3 SWAP2 POP POP JUMP JUMPDEST PUSH2 0x1534 DUP2 PUSH2 0x107D JUMP JUMPDEST DUP2 EQ PUSH2 0x153F JUMPI PUSH1 0x0 DUP1 REVERT JUMPDEST POP JUMP JUMPDEST PUSH1 0x0 DUP2 CALLDATALOAD SWAP1 POP PUSH2 0x1551 DUP2 PUSH2 0x152B JUMP JUMPDEST SWAP3 SWAP2 POP POP JUMP JUMPDEST PUSH1 0x0 PUSH1 0x20 DUP3 DUP5 SUB SLT ISZERO PUSH2 0x156D JUMPI PUSH2 0x156C PUSH2 0x10BB JUMP JUMPDEST JUMPDEST PUSH1 0x0 PUSH2 0x157B DUP5 DUP3 DUP6 ADD PUSH2 0x1542 JUMP JUMPDEST SWAP2 POP POP SWAP3 SWAP2 POP POP JUMP JUMPDEST PUSH32 0x4E6F7420746865206F776E657200000000000000000000000000000000000000 PUSH1 0x0 DUP3 ADD MSTORE POP JUMP JUMPDEST PUSH1 0x0 PUSH2 0x15BA PUSH1 0xD DUP4 PUSH2 0x12E8 JUMP JUMPDEST SWAP2 POP PUSH2 0x15C5 DUP3 PUSH2 0x1584 JUMP JUMPDEST PUSH1 0x20 DUP3 ADD SWAP1 POP SWAP2 SWAP1 POP JUMP JUMPDEST PUSH1 0x0 PUSH1 0x20 DUP3 ADD SWAP1 POP DUP2 DUP2 SUB PUSH1 0x0 DUP4 ADD MSTORE PUSH2 0x15E9 DUP2 PUSH2 0x15AD JUMP JUMPDEST SWAP1 POP SWAP2 SWAP1 POP JUMP JUMPDEST PUSH32 0x4E6F20617661696C61626C652066756E64730000000000000000000000000000 PUSH1 0x0 DUP3 ADD MSTORE POP JUMP JUMPDEST PUSH1 0x0 PUSH2 0x1626 PUSH1 0x12 DUP4 PUSH2 0x12E8 JUMP JUMPDEST SWAP2 POP PUSH2 0x1631 DUP3 PUSH2 0x15F0 JUMP JUMPDEST PUSH1 0x20 DUP3 ADD SWAP1 POP SWAP2 SWAP1 POP JUMP JUMPDEST PUSH1 0x0 PUSH1 0x20 DUP3 ADD SWAP1 POP DUP2 DUP2 SUB PUSH1 0x0 DUP4 ADD MSTORE PUSH2 0x1655 DUP2 PUSH2 0x1619 JUMP JUMPDEST SWAP1 POP SWAP2 SWAP1 POP JUMP JUMPDEST PUSH1 0x0 DUP2 SWAP1 POP SWAP3 SWAP2 POP POP JUMP JUMPDEST POP JUMP JUMPDEST PUSH1 0x0 PUSH2 0x1677 PUSH1 0x0 DUP4 PUSH2 0x165C JUMP JUMPDEST SWAP2 POP PUSH2 0x1682 DUP3 PUSH2 0x1667 JUMP JUMPDEST PUSH1 0x0 DUP3 ADD SWAP1 POP SWAP2 SWAP1 POP JUMP JUMPDEST PUSH1 0x0 PUSH2 0x1698 DUP3 PUSH2 0x166A JUMP JUMPDEST SWAP2 POP DUP2 SWAP1 POP SWAP2 SWAP1 POP JUMP JUMPDEST PUSH32 0x5472616E73616374696F6E206661696C65640000000000000000000000000000 PUSH1 0x0 DUP3 ADD MSTORE POP JUMP JUMPDEST PUSH1 0x0 PUSH2 0x16D8 PUSH1 0x12 DUP4 PUSH2 0x12E8 JUMP JUMPDEST SWAP2 POP PUSH2 0x16E3 DUP3 PUSH2 0x16A2 JUMP JUMPDEST PUSH1 0x20 DUP3 ADD SWAP1 POP SWAP2 SWAP1 POP JUMP JUMPDEST PUSH1 0x0 PUSH1 0x20 DUP3 ADD SWAP1 POP DUP2 DUP2 SUB PUSH1 0x0 DUP4 ADD MSTORE PUSH2 0x1707 DUP2 PUSH2 0x16CB JUMP JUMPDEST SWAP1 POP SWAP2 SWAP1 POP JUMP JUMPDEST PUSH32 0x4E6F7420616C6C6F776564000000000000000000000000000000000000000000 PUSH1 0x0 DUP3 ADD MSTORE POP JUMP JUMPDEST PUSH1 0x0 PUSH2 0x1744 PUSH1 0xB DUP4 PUSH2 0x12E8 JUMP JUMPDEST SWAP2 POP PUSH2 0x174F DUP3 PUSH2 0x170E JUMP JUMPDEST PUSH1 0x20 DUP3 ADD SWAP1 POP SWAP2 SWAP1 POP JUMP JUMPDEST PUSH1 0x0 PUSH1 0x20 DUP3 ADD SWAP1 POP DUP2 DUP2 SUB PUSH1 0x0 DUP4 ADD MSTORE PUSH2 0x1773 DUP2 PUSH2 0x1737 JUMP JUMPDEST SWAP1 POP SWAP2 SWAP1 POP JUMP JUMPDEST PUSH32 0x4E487B7100000000000000000000000000000000000000000000000000000000 PUSH1 0x0 MSTORE PUSH1 0x22 PUSH1 0x4 MSTORE PUSH1 0x24 PUSH1 0x0 REVERT JUMPDEST PUSH1 0x0 PUSH1 0x2 DUP3 DIV SWAP1 POP PUSH1 0x1 DUP3 AND DUP1 PUSH2 0x17C1 JUMPI PUSH1 0x7F DUP3 AND SWAP2 POP JUMPDEST PUSH1 0x20 DUP3 LT DUP2 SUB PUSH2 0x17D4 JUMPI PUSH2 0x17D3 PUSH2 0x177A JUMP JUMPDEST JUMPDEST POP SWAP2 SWAP1 POP JUMP JUMPDEST PUSH32 0x42657474696E672074696D65206E6F742066696E697368656400000000000000 PUSH1 0x0 DUP3 ADD MSTORE POP JUMP JUMPDEST PUSH1 0x0 PUSH2 0x1810 PUSH1 0x19 DUP4 PUSH2 0x12E8 JUMP JUMPDEST SWAP2 POP PUSH2 0x181B DUP3 PUSH2 0x17DA JUMP JUMPDEST PUSH1 0x20 DUP3 ADD SWAP1 POP SWAP2 SWAP1 POP JUMP JUMPDEST PUSH1 0x0 PUSH1 0x20 DUP3 ADD SWAP1 POP DUP2 DUP2 SUB PUSH1 0x0 DUP4 ADD MSTORE PUSH2 0x183F DUP2 PUSH2 0x1803 JUMP JUMPDEST SWAP1 POP SWAP2 SWAP1 POP JUMP JUMPDEST PUSH32 0x596F752068617665206E6F742070617274696369706174656400000000000000 PUSH1 0x0 DUP3 ADD MSTORE POP JUMP JUMPDEST PUSH1 0x0 PUSH2 0x187C PUSH1 0x19 DUP4 PUSH2 0x12E8 JUMP JUMPDEST SWAP2 POP PUSH2 0x1887 DUP3 PUSH2 0x1846 JUMP JUMPDEST PUSH1 0x20 DUP3 ADD SWAP1 POP SWAP2 SWAP1 POP JUMP JUMPDEST PUSH1 0x0 PUSH1 0x20 DUP3 ADD SWAP1 POP DUP2 DUP2 SUB PUSH1 0x0 DUP4 ADD MSTORE PUSH2 0x18AB DUP2 PUSH2 0x186F JUMP JUMPDEST SWAP1 POP SWAP2 SWAP1 POP JUMP JUMPDEST PUSH32 0x4574682070726963652063616E74206265203000000000000000000000000000 PUSH1 0x0 DUP3 ADD MSTORE POP JUMP JUMPDEST PUSH1 0x0 PUSH2 0x18E8 PUSH1 0x13 DUP4 PUSH2 0x12E8 JUMP JUMPDEST SWAP2 POP PUSH2 0x18F3 DUP3 PUSH2 0x18B2 JUMP JUMPDEST PUSH1 0x20 DUP3 ADD SWAP1 POP SWAP2 SWAP1 POP JUMP JUMPDEST PUSH1 0x0 PUSH1 0x20 DUP3 ADD SWAP1 POP DUP2 DUP2 SUB PUSH1 0x0 DUP4 ADD MSTORE PUSH2 0x1917 DUP2 PUSH2 0x18DB JUMP JUMPDEST SWAP1 POP SWAP2 SWAP1 POP JUMP JUMPDEST PUSH1 0x0 DUP2 SWAP1 POP SWAP3 SWAP2 POP POP JUMP JUMPDEST PUSH1 0x0 PUSH2 0x1934 DUP3 PUSH2 0x12DD JUMP JUMPDEST PUSH2 0x193E DUP2 DUP6 PUSH2 0x191E JUMP JUMPDEST SWAP4 POP PUSH2 0x194E DUP2 DUP6 PUSH1 0x20 DUP7 ADD PUSH2 0x11AE JUMP JUMPDEST DUP1 DUP5 ADD SWAP2 POP POP SWAP3 SWAP2 POP POP JUMP JUMPDEST PUSH1 0x0 PUSH2 0x1966 DUP3 DUP5 PUSH2 0x1929 JUMP JUMPDEST SWAP2 POP DUP2 SWAP1 POP SWAP3 SWAP2 POP POP JUMP JUMPDEST PUSH32 0x6C6F6E6700000000000000000000000000000000000000000000000000000000 PUSH1 0x0 DUP3 ADD MSTORE POP JUMP JUMPDEST PUSH1 0x0 PUSH2 0x19A7 PUSH1 0x4 DUP4 PUSH2 0x191E JUMP JUMPDEST SWAP2 POP PUSH2 0x19B2 DUP3 PUSH2 0x1971 JUMP JUMPDEST PUSH1 0x4 DUP3 ADD SWAP1 POP SWAP2 SWAP1 POP JUMP JUMPDEST PUSH1 0x0 PUSH2 0x19C8 DUP3 PUSH2 0x199A JUMP JUMPDEST SWAP2 POP DUP2 SWAP1 POP SWAP2 SWAP1 POP JUMP JUMPDEST PUSH32 0x73686F7274000000000000000000000000000000000000000000000000000000 PUSH1 0x0 DUP3 ADD MSTORE POP JUMP JUMPDEST PUSH1 0x0 PUSH2 0x1A08 PUSH1 0x5 DUP4 PUSH2 0x191E JUMP JUMPDEST SWAP2 POP PUSH2 0x1A13 DUP3 PUSH2 0x19D2 JUMP JUMPDEST PUSH1 0x5 DUP3 ADD SWAP1 POP SWAP2 SWAP1 POP JUMP JUMPDEST PUSH1 0x0 PUSH2 0x1A29 DUP3 PUSH2 0x19FB JUMP JUMPDEST SWAP2 POP DUP2 SWAP1 POP SWAP2 SWAP1 POP JUMP JUMPDEST PUSH32 0x4E487B7100000000000000000000000000000000000000000000000000000000 PUSH1 0x0 MSTORE PUSH1 0x11 PUSH1 0x4 MSTORE PUSH1 0x24 PUSH1 0x0 REVERT JUMPDEST PUSH1 0x0 PUSH2 0x1A6D DUP3 PUSH2 0x107D JUMP JUMPDEST SWAP2 POP PUSH2 0x1A78 DUP4 PUSH2 0x107D JUMP JUMPDEST SWAP3 POP DUP3 DUP3 MUL PUSH2 0x1A86 DUP2 PUSH2 0x107D JUMP JUMPDEST SWAP2 POP DUP3 DUP3 DIV DUP5 EQ DUP4 ISZERO OR PUSH2 0x1A9D JUMPI PUSH2 0x1A9C PUSH2 0x1A33 JUMP JUMPDEST JUMPDEST POP SWAP3 SWAP2 POP POP JUMP JUMPDEST PUSH32 0x4E6F7420656E6F7567682066756E64732C20636F6D65206261636B206C617465 PUSH1 0x0 DUP3 ADD MSTORE PUSH32 0x7200000000000000000000000000000000000000000000000000000000000000 PUSH1 0x20 DUP3 ADD MSTORE POP JUMP JUMPDEST PUSH1 0x0 PUSH2 0x1B00 PUSH1 0x21 DUP4 PUSH2 0x12E8 JUMP JUMPDEST SWAP2 POP PUSH2 0x1B0B DUP3 PUSH2 0x1AA4 JUMP JUMPDEST PUSH1 0x40 DUP3 ADD SWAP1 POP SWAP2 SWAP1 POP JUMP JUMPDEST PUSH1 0x0 PUSH1 0x20 DUP3 ADD SWAP1 POP DUP2 DUP2 SUB PUSH1 0x0 DUP4 ADD MSTORE PUSH2 0x1B2F DUP2 PUSH2 0x1AF3 JUMP JUMPDEST SWAP1 POP SWAP2 SWAP1 POP JUMP JUMPDEST PUSH32 0x52657175697265732068696768657220616D6F756E74207468616E20302E3220 PUSH1 0x0 DUP3 ADD MSTORE PUSH32 0x4574686572000000000000000000000000000000000000000000000000000000 PUSH1 0x20 DUP3 ADD MSTORE POP JUMP JUMPDEST PUSH1 0x0 PUSH2 0x1B92 PUSH1 0x25 DUP4 PUSH2 0x12E8 JUMP JUMPDEST SWAP2 POP PUSH2 0x1B9D DUP3 PUSH2 0x1B36 JUMP JUMPDEST PUSH1 0x40 DUP3 ADD SWAP1 POP SWAP2 SWAP1 POP JUMP JUMPDEST PUSH1 0x0 PUSH1 0x20 DUP3 ADD SWAP1 POP DUP2 DUP2 SUB PUSH1 0x0 DUP4 ADD MSTORE PUSH2 0x1BC1 DUP2 PUSH2 0x1B85 JUMP JUMPDEST SWAP1 POP SWAP2 SWAP1 POP JUMP JUMPDEST PUSH32 0x596F752068617665206578697374696E67206265740000000000000000000000 PUSH1 0x0 DUP3 ADD MSTORE POP JUMP JUMPDEST PUSH1 0x0 PUSH2 0x1BFE PUSH1 0x15 DUP4 PUSH2 0x12E8 JUMP JUMPDEST SWAP2 POP PUSH2 0x1C09 DUP3 PUSH2 0x1BC8 JUMP JUMPDEST PUSH1 0x20 DUP3 ADD SWAP1 POP SWAP2 SWAP1 POP JUMP JUMPDEST PUSH1 0x0 PUSH1 0x20 DUP3 ADD SWAP1 POP DUP2 DUP2 SUB PUSH1 0x0 DUP4 ADD MSTORE PUSH2 0x1C2D DUP2 PUSH2 0x1BF1 JUMP JUMPDEST SWAP1 POP SWAP2 SWAP1 POP JUMP JUMPDEST PUSH32 0x4F6E6C7920454F412063616E2070617274696369706174650000000000000000 PUSH1 0x0 DUP3 ADD MSTORE POP JUMP JUMPDEST PUSH1 0x0 PUSH2 0x1C6A PUSH1 0x18 DUP4 PUSH2 0x12E8 JUMP JUMPDEST SWAP2 POP PUSH2 0x1C75 DUP3 PUSH2 0x1C34 JUMP JUMPDEST PUSH1 0x20 DUP3 ADD SWAP1 POP SWAP2 SWAP1 POP JUMP JUMPDEST PUSH1 0x0 PUSH1 0x20 DUP3 ADD SWAP1 POP DUP2 DUP2 SUB PUSH1 0x0 DUP4 ADD MSTORE PUSH2 0x1C99 DUP2 PUSH2 0x1C5D JUMP JUMPDEST SWAP1 POP SWAP2 SWAP1 POP JUMP JUMPDEST PUSH32 0x42657474696E67206E6F74206F70656E2E000000000000000000000000000000 PUSH1 0x0 DUP3 ADD MSTORE POP JUMP JUMPDEST PUSH1 0x0 PUSH2 0x1CD6 PUSH1 0x11 DUP4 PUSH2 0x12E8 JUMP JUMPDEST SWAP2 POP PUSH2 0x1CE1 DUP3 PUSH2 0x1CA0 JUMP JUMPDEST PUSH1 0x20 DUP3 ADD SWAP1 POP SWAP2 SWAP1 POP JUMP JUMPDEST PUSH1 0x0 PUSH1 0x20 DUP3 ADD SWAP1 POP DUP2 DUP2 SUB PUSH1 0x0 DUP4 ADD MSTORE PUSH2 0x1D05 DUP2 PUSH2 0x1CC9 JUMP JUMPDEST SWAP1 POP SWAP2 SWAP1 POP JUMP JUMPDEST PUSH32 0x42657474696E672074696D652066696E69736865642E00000000000000000000 PUSH1 0x0 DUP3 ADD MSTORE POP JUMP JUMPDEST PUSH1 0x0 PUSH2 0x1D42 PUSH1 0x16 DUP4 PUSH2 0x12E8 JUMP JUMPDEST SWAP2 POP PUSH2 0x1D4D DUP3 PUSH2 0x1D0C JUMP JUMPDEST PUSH1 0x20 DUP3 ADD SWAP1 POP SWAP2 SWAP1 POP JUMP JUMPDEST PUSH1 0x0 PUSH1 0x20 DUP3 ADD SWAP1 POP DUP2 DUP2 SUB PUSH1 0x0 DUP4 ADD MSTORE PUSH2 0x1D71 DUP2 PUSH2 0x1D35 JUMP JUMPDEST SWAP1 POP SWAP2 SWAP1 POP JUMP JUMPDEST PUSH32 0x4E487B7100000000000000000000000000000000000000000000000000000000 PUSH1 0x0 MSTORE PUSH1 0x12 PUSH1 0x4 MSTORE PUSH1 0x24 PUSH1 0x0 REVERT JUMPDEST PUSH1 0x0 PUSH2 0x1DB2 DUP3 PUSH2 0x107D JUMP JUMPDEST SWAP2 POP PUSH2 0x1DBD DUP4 PUSH2 0x107D JUMP JUMPDEST SWAP3 POP DUP3 PUSH2 0x1DCD JUMPI PUSH2 0x1DCC PUSH2 0x1D78 JUMP JUMPDEST JUMPDEST DUP3 DUP3 DIV SWAP1 POP SWAP3 SWAP2 POP POP JUMP JUMPDEST PUSH1 0x0 PUSH2 0x1DE3 DUP3 PUSH2 0x107D JUMP JUMPDEST SWAP2 POP PUSH2 0x1DEE DUP4 PUSH2 0x107D JUMP JUMPDEST SWAP3 POP DUP3 DUP3 SUB SWAP1 POP DUP2 DUP2 GT ISZERO PUSH2 0x1E06 JUMPI PUSH2 0x1E05 PUSH2 0x1A33 JUMP JUMPDEST JUMPDEST SWAP3 SWAP2 POP POP JUMP JUMPDEST PUSH1 0x0 DUP2 SWAP1 POP DUP2 PUSH1 0x0 MSTORE PUSH1 0x20 PUSH1 0x0 KECCAK256 SWAP1 POP SWAP2 SWAP1 POP JUMP JUMPDEST PUSH1 0x0 PUSH1 0x20 PUSH1 0x1F DUP4 ADD DIV SWAP1 POP SWAP2 SWAP1 POP JUMP JUMPDEST PUSH1 0x0 DUP3 DUP3 SHL SWAP1 POP SWAP3 SWAP2 POP POP JUMP JUMPDEST PUSH1 0x0 PUSH1 0x8 DUP4 MUL PUSH2 0x1E6E PUSH32 0xFFFFFFFFFFFFFFFFFFFFFFFFFFFFFFFFFFFFFFFFFFFFFFFFFFFFFFFFFFFFFFFF DUP3 PUSH2 0x1E31 JUMP JUMPDEST PUSH2 0x1E78 DUP7 DUP4 PUSH2 0x1E31 JUMP JUMPDEST SWAP6 POP DUP1 NOT DUP5 AND SWAP4 POP DUP1 DUP7 AND DUP5 OR SWAP3 POP POP POP SWAP4 SWAP3 POP POP POP JUMP JUMPDEST PUSH1 0x0 DUP2 SWAP1 POP SWAP2 SWAP1 POP JUMP JUMPDEST PUSH1 0x0 PUSH2 0x1EB5 PUSH2 0x1EB0 PUSH2 0x1EAB DUP5 PUSH2 0x107D JUMP JUMPDEST PUSH2 0x1E90 JUMP JUMPDEST PUSH2 0x107D JUMP JUMPDEST SWAP1 POP SWAP2 SWAP1 POP JUMP JUMPDEST PUSH1 0x0 DUP2 SWAP1 POP SWAP2 SWAP1 POP JUMP JUMPDEST PUSH2 0x1ECF DUP4 PUSH2 0x1E9A JUMP JUMPDEST PUSH2 0x1EE3 PUSH2 0x1EDB DUP3 PUSH2 0x1EBC JUMP JUMPDEST DUP5 DUP5 SLOAD PUSH2 0x1E3E JUMP JUMPDEST DUP3 SSTORE POP POP POP POP JUMP JUMPDEST PUSH1 0x0 SWAP1 JUMP JUMPDEST PUSH2 0x1EF8 PUSH2 0x1EEB JUMP JUMPDEST PUSH2 0x1F03 DUP2 DUP5 DUP5 PUSH2 0x1EC6 JUMP JUMPDEST POP POP POP JUMP JUMPDEST JUMPDEST DUP2 DUP2 LT ISZERO PUSH2 0x1F27 JUMPI PUSH2 0x1F1C PUSH1 0x0 DUP3 PUSH2 0x1EF0 JUMP JUMPDEST PUSH1 0x1 DUP2 ADD SWAP1 POP PUSH2 0x1F09 JUMP JUMPDEST POP POP JUMP JUMPDEST PUSH1 0x1F DUP3 GT ISZERO PUSH2 0x1F6C JUMPI PUSH2 0x1F3D DUP2 PUSH2 0x1E0C JUMP JUMPDEST PUSH2 0x1F46 DUP5 PUSH2 0x1E21 JUMP JUMPDEST DUP2 ADD PUSH1 0x20 DUP6 LT ISZERO PUSH2 0x1F55 JUMPI DUP2 SWAP1 POP JUMPDEST PUSH2 0x1F69 PUSH2 0x1F61 DUP6 PUSH2 0x1E21 JUMP JUMPDEST DUP4 ADD DUP3 PUSH2 0x1F08 JUMP JUMPDEST POP POP JUMPDEST POP POP POP JUMP JUMPDEST PUSH1 0x0 DUP3 DUP3 SHR SWAP1 POP SWAP3 SWAP2 POP POP JUMP JUMPDEST PUSH1 0x0 PUSH2 0x1F8F PUSH1 0x0 NOT DUP5 PUSH1 0x8 MUL PUSH2 0x1F71 JUMP JUMPDEST NOT DUP1 DUP4 AND SWAP2 POP POP SWAP3 SWAP2 POP POP JUMP JUMPDEST PUSH1 0x0 PUSH2 0x1FA8 DUP4 DUP4 PUSH2 0x1F7E JUMP JUMPDEST SWAP2 POP DUP3 PUSH1 0x2 MUL DUP3 OR SWAP1 POP SWAP3 SWAP2 POP POP JUMP JUMPDEST PUSH2 0x1FC1 DUP3 PUSH2 0x12DD JUMP JUMPDEST PUSH8 0xFFFFFFFFFFFFFFFF DUP2 GT ISZERO PUSH2 0x1FDA JUMPI PUSH2 0x1FD9 PUSH2 0x1383 JUMP JUMPDEST JUMPDEST PUSH2 0x1FE4 DUP3 SLOAD PUSH2 0x17A9 JUMP JUMPDEST PUSH2 0x1FEF DUP3 DUP3 DUP6 PUSH2 0x1F2B JUMP JUMPDEST PUSH1 0x0 PUSH1 0x20 SWAP1 POP PUSH1 0x1F DUP4 GT PUSH1 0x1 DUP2 EQ PUSH2 0x2022 JUMPI PUSH1 0x0 DUP5 ISZERO PUSH2 0x2010 JUMPI DUP3 DUP8 ADD MLOAD SWAP1 POP JUMPDEST PUSH2 0x201A DUP6 DUP3 PUSH2 0x1F9C JUMP JUMPDEST DUP7 SSTORE POP PUSH2 0x2082 JUMP JUMPDEST PUSH1 0x1F NOT DUP5 AND PUSH2 0x2030 DUP7 PUSH2 0x1E0C JUMP JUMPDEST PUSH1 0x0 JUMPDEST DUP3 DUP2 LT ISZERO PUSH2 0x2058 JUMPI DUP5 DUP10 ADD MLOAD DUP3 SSTORE PUSH1 0x1 DUP3 ADD SWAP2 POP PUSH1 0x20 DUP6 ADD SWAP5 POP PUSH1 0x20 DUP2 ADD SWAP1 POP PUSH2 0x2033 JUMP JUMPDEST DUP7 DUP4 LT ISZERO PUSH2 0x2075 JUMPI DUP5 DUP10 ADD MLOAD PUSH2 0x2071 PUSH1 0x1F DUP10 AND DUP3 PUSH2 0x1F7E JUMP JUMPDEST DUP4 SSTORE POP JUMPDEST PUSH1 0x1 PUSH1 0x2 DUP9 MUL ADD DUP9 SSTORE POP POP POP JUMPDEST POP POP POP POP POP POP JUMP JUMPDEST PUSH32 0x43616E7420626520616464726573732030000000000000000000000000000000 PUSH1 0x0 DUP3 ADD MSTORE POP JUMP JUMPDEST PUSH1 0x0 PUSH2 0x20C0 PUSH1 0x11 DUP4 PUSH2 0x12E8 JUMP JUMPDEST SWAP2 POP PUSH2 0x20CB DUP3 PUSH2 0x208A JUMP JUMPDEST PUSH1 0x20 DUP3 ADD SWAP1 POP SWAP2 SWAP1 POP JUMP JUMPDEST PUSH1 0x0 PUSH1 0x20 DUP3 ADD SWAP1 POP DUP2 DUP2 SUB PUSH1 0x0 DUP4 ADD MSTORE PUSH2 0x20EF DUP2 PUSH2 0x20B3 JUMP JUMPDEST SWAP1 POP SWAP2 SWAP1 POP JUMP JUMPDEST PUSH1 0x0 PUSH10 0xFFFFFFFFFFFFFFFFFFFF DUP3 AND SWAP1 POP SWAP2 SWAP1 POP JUMP JUMPDEST PUSH2 0x2115 DUP2 PUSH2 0x20F6 JUMP JUMPDEST DUP2 EQ PUSH2 0x2120 JUMPI PUSH1 0x0 DUP1 REVERT JUMPDEST POP JUMP JUMPDEST PUSH1 0x0 DUP2 MLOAD SWAP1 POP PUSH2 0x2132 DUP2 PUSH2 0x210C JUMP JUMPDEST SWAP3 SWAP2 POP POP JUMP JUMPDEST PUSH2 0x2141 DUP2 PUSH2 0x14F7 JUMP JUMPDEST DUP2 EQ PUSH2 0x214C JUMPI PUSH1 0x0 DUP1 REVERT JUMPDEST POP JUMP JUMPDEST PUSH1 0x0 DUP2 MLOAD SWAP1 POP PUSH2 0x215E DUP2 PUSH2 0x2138 JUMP JUMPDEST SWAP3 SWAP2 POP POP JUMP JUMPDEST PUSH1 0x0 DUP2 MLOAD SWAP1 POP PUSH2 0x2173 DUP2 PUSH2 0x152B JUMP JUMPDEST SWAP3 SWAP2 POP POP JUMP JUMPDEST PUSH1 0x0 DUP1 PUSH1 0x0 DUP1 PUSH1 0x0 PUSH1 0xA0 DUP7 DUP9 SUB SLT ISZERO PUSH2 0x2195 JUMPI PUSH2 0x2194 PUSH2 0x10BB JUMP JUMPDEST JUMPDEST PUSH1 0x0 PUSH2 0x21A3 DUP9 DUP3 DUP10 ADD PUSH2 0x2123 JUMP JUMPDEST SWAP6 POP POP PUSH1 0x20 PUSH2 0x21B4 DUP9 DUP3 DUP10 ADD PUSH2 0x214F JUMP JUMPDEST SWAP5 POP POP PUSH1 0x40 PUSH2 0x21C5 DUP9 DUP3 DUP10 ADD PUSH2 0x2164 JUMP JUMPDEST SWAP4 POP POP PUSH1 0x60 PUSH2 0x21D6 DUP9 DUP3 DUP10 ADD PUSH2 0x2164 JUMP JUMPDEST SWAP3 POP POP PUSH1 0x80 PUSH2 0x21E7 DUP9 DUP3 DUP10 ADD PUSH2 0x2123 JUMP JUMPDEST SWAP2 POP POP SWAP3 SWAP6 POP SWAP3 SWAP6 SWAP1 SWAP4 POP JUMP JUMPDEST PUSH1 0x0 PUSH2 0x21FF DUP3 PUSH2 0x14F7 JUMP JUMPDEST SWAP2 POP PUSH2 0x220A DUP4 PUSH2 0x14F7 JUMP JUMPDEST SWAP3 POP DUP3 PUSH2 0x221A JUMPI PUSH2 0x2219 PUSH2 0x1D78 JUMP JUMPDEST JUMPDEST PUSH1 0x1 PUSH1 0x0 SUB DUP4 EQ PUSH32 0x8000000000000000000000000000000000000000000000000000000000000000 DUP4 EQ AND ISZERO PUSH2 0x2253 JUMPI PUSH2 0x2252 PUSH2 0x1A33 JUMP JUMPDEST JUMPDEST DUP3 DUP3 SDIV SWAP1 POP SWAP3 SWAP2 POP POP JUMP INVALID LOG2 PUSH5 0x6970667358 0x22 SLT KECCAK256 PUSH23 0x6BE8336BDEB388D56184257A37C0699A5B4DAE8C5302 PUSH1 0x58 0xC8 EQ 0xBA PUSH8 0x66A064736F6C6343 STOP ADDMOD SGT STOP CALLER "
        },
        "methodIdentifiers": {
          "FEE()": "c57981b5",
          "bets(address)": "89a78f1a",
          "checkUpkeep(bytes)": "6e04ff0d",
          "closingBetEthPrice()": "c88c9549",
          "closingBetTime()": "a3743b31",
          "createBet(string)": "b3a23578",
          "getChainlinkDataFeedLatestAnswer()": "bea4dfb5",
          "getEndTime()": "439f5ac2",
          "openBetTime()": "afaab451",
          "openNewBettingPeriod(uint256)": "e97a4020",
          "performUpkeep(bytes)": "4585e33b",
          "setForwarder(address)": "b9998a24",
          "settleBet()": "8e4bf820",
          "withdraw()": "3ccfd60b"
        }
      }
    }
  }
}